:020000040800F2
:1000000000000120A50B000839090008410900087B
:1000100049090008510900085909000800000000BA
:100020000000000000000000000000007155000802
:1000300061090008000000005157000899570008A6
:10004000ED0B0008ED0B0008ED0B0008ED0B0008B0
:10005000ED0B0008ED0B0008ED0B0008ED0B0008A0
:10006000ED0B0008ED0B0008ED0B0008ED0B000890
:10007000ED0B0008ED0B0008ED0B0008ED0B000880
:10008000ED0B0008ED0B0008ED0B0008ED0B000870
:10009000ED0B0008ED0B0008ED0B0008ED0B000860
:1000A000ED0B0008ED0B0008ED0B0008ED0B000850
:1000B0006D090008ED0B0008ED0B0008ED0B0008C2
:1000C000ED0B0008ED0B0008ED0B0008ED0B000830
:1000D000ED0B0008ED0B0008D5090008ED0B00083A
:1000E000ED0B0008ED0B0008ED0B0008ED0B000810
:1000F000ED0B0008ED0B0008ED0B0008ED0B000800
:10010000ED0B0008ED0B0008ED0B0008ED0B0008EF
:10011000ED0B0008ED0B0008ED0B0008E9090008E5
:10012000ED0B0008ED0B0008ED0B0008ED0B0008CF
:1001300000000000000000000000000000000000BF
:1001400000000000000000000000000000000000AF
:10015000000000000000000000000000000000009F
:10016000000000000000000000000000000000008F
:10017000000000000000000000000000000000007F
:10018000000000000000000000000000000000006F
:10019000000000000000000000000000000000005F
:1001A000000000000000000000000000000000004F
:1001B000000000000000000000000000000000003F
:1001C000000000000000000000000000000000002F
:1001D000000000000000000000000000000000001F
:0401E0005FF8E0F1F3
:1001F00010B5054C237833B9044B13B10448AFF361
:1002000000800123237010BD6C000020000000005E
:100210000C73000808B5034B1BB103490348AFF347
:10022000008008BD00000000700000200C73000872
:1002300080B500AF00F0DCFC012003F0B1F803460C
:10024000184A136000F048F800F02CF900F0D6F8D6
:1002500000F0FEF800F086F8134801F01CFD0122C2
:100260001249134802F076F902F018FD114A0021F4
:10027000114802F079FD0346104A1360104A00212C
:10028000104802F071FD03460F4A13600F4A002127
:100290000F4802F069FD03460E4A136002F030FD7C
:1002A00000BFFDE75401002088000020501C002002
:1002B00008010020AC740008BD05000848010020BA
:1002C000D0740008D30500084C010020F474000825
:1002D000010600085001002080B590B000AF07F182
:1002E000180328220021184606F01EFA3B1D0022A2
:1002F0001A605A609A60DA601A610123BB614FF498
:100300008033FB6100233B620123BB6202237B63DA
:100310004FF48033BB634FF4E013FB6307F1180322
:10032000184601F043F80346002B01D000F098F97D
:100330000F237B600223BB600023FB604FF48063CC
:100340003B6100237B613B1D0221184601F0B0FA9E
:100350000346002B01D000F083F900BF4037BD46B3
:1003600080BD000080B586B000AF07F10803002211
:100370001A605A609A60DA603B4600221A605A603E
:100380001D4B4FF080421A601B4B47225A601A4B9C
:1003900000229A60184B4FF4FA72DA60164B002272
:1003A0001A61154B00229A61134801F049FC03467B
:1003B000002B01D000F054F94FF48053BB6007F1DB
:1003C000080319460C4801F091FD0346002B01D0AB
:1003D00000F046F900233B6000237B603B46194652
:1003E000054801F07BFF0346002B01D000F038F9EF
:1003F00000BF1837BD4680BD8800002080B500AF23
:10040000114B124A1A60104B4FF4E1325A600E4BF6
:1004100000229A600C4B0022DA600B4B00221A611A
:10042000094B0C225A61084B00229A61064B0022AC
:10043000DA61054801F0A8FF0346002B01D000F067
:100440000FF900BF80BD00BFC80000200038014088
:1004500080B500AF114B124A1A60104B4FF4E132D5
:100460005A600E4B00229A600C4B0022DA600B4B54
:1004700000221A61094B0C225A61084B00229A6132
:10048000064B0022DA61054801F07EFF0346002B8F
:1004900001D000F0E5F800BF80BD00BF08010020DA
:1004A0000044004080B588B000AF07F1100300227F
:1004B0001A605A609A60DA603C4B9B693B4A43F091
:1004C00040039361394B9B6903F04003FB60FB6879
:1004D000364B9B69354A43F004039361334B9B6968
:1004E00003F00403BB60BB68304B9B692F4A43F0A9
:1004F000200393612D4B9B6903F020037B607B6895
:100500002A4B9B69294A43F008039361274B9B6957
:1005100003F008033B603B6800222021244800F0E0
:100520002CFF00228021234800F027FF00222021F9
:10053000214800F022FF1C233B6100237B61002344
:10054000BB6107F110031946194800F06BFD202329
:100550003B6101237B610023BB610223FB6107F147
:1005600010031946124800F05DFD80233B61012312
:100570007B610023BB610223FB6107F11003194675
:100580000C4800F04FFD20233B6101237B610023D9
:10059000BB610223FB6107F110031946064800F016
:1005A00041FD00BF2037BD4680BD00BF00100240A6
:1005B0000018014000140140000C014080B582B0D9
:1005C00000AF786005F09CFB012002F077FC00BFD3
:1005D000F8E780B582B000AF786005F051FB05F018
:1005E00067FB4FF47A7002F069FC05F055FB05F0EB
:1005F0006BFB4FF47A7002F061FC00BFEDE7000086
:1006000080B582B000AF78600A4B1A780A4B1B782D
:100610009A4208D0084B1A78064B1A70054B1B7883
:10062000184605F037FE05F011FD012002F046FCEA
:10063000EAE700BF801B0020811B002080B582B04C
:1006400000AF78607B681B68044A934201D100F0D8
:10065000E5FA00BF0837BD4680BD00BF001400406A
:1006600080B400AF72B600BF00BFFDE780B584B0B4
:1006700000AF184B9B69174A43F001039361154B78
:100680009B6903F00103BB60BB68124BDB69114A35
:1006900043F08053D3610F4BDB6903F080537B60E1
:1006A0007B6800220F216FF0010000F088FB0A4BED
:1006B0005B68FB60FB6823F0E063FB60FB6843F072
:1006C0000073FB60044AFB68536000BF1037BD46EF
:1006D00080BD00BF001002400000014080B584B022
:1006E00000AF78607B681B68B3F1804F13D10C4B6F
:1006F000DB690B4A43F00103D361094BDB6903F06B
:100700000103FB60FB68002205211C2000F057FB61
:100710001C2000F070FB00BF1037BD4680BD00BF3D
:100720000010024080B58AB000AF786007F118036E
:1007300000221A605A609A60DA607B681B683B4A44
:10074000934232D13A4B9B69394A43F480439361D7
:10075000374B9B6903F480437B617B69344B9B6916
:10076000334A43F004039361314B9B6903F0040364
:100770003B613B694FF40073BB610223FB610323C0
:100780007B6207F1180319462A4800F04BFC4FF42E
:100790008063BB610023FB6100233B6207F1180308
:1007A0001946244800F03EFC3CE07B681B68224A66
:1007B000934237D11E4BDB691D4A43F40033D361AA
:1007C0001B4BDB6903F40033FB60FB68184B9B6930
:1007D000174A43F004039361154B9B6903F004032C
:1007E000BB60BB680423BB610223FB6103237B6204
:1007F00007F1180319460F4800F014FC0823BB61E9
:100800000023FB6100233B6207F1180319460948E6
:1008100000F008FC00220521262000F0D0FA262056
:1008200000F0E9FA00BF2837BD4680BD003801401E
:1008300000100240000801400044004080B58EB026
:1008400000AF78600023FB620023BB62002387F8BF
:100850003330344BDB69334A43F02003D361314BEF
:10086000DB6903F02003FB60FB6807F1100207F16E
:1008700014031146184601F095F93B6AFB62FB6AC6
:10088000002B03D101F066F9786304E001F062F90E
:1008900003465B007B637B6B234AA2FB03239B0C19
:1008A000013BBB62214B224A1A60204B40F2E732E7
:1008B000DA601E4ABB6A53601C4B00221A611B4B54
:1008C00000229A60194B00229A61184801F0B8F989
:1008D000034687F8333097F83330002B1BD1134889
:1008E00001F0D9F9034687F8333097F83330002BFD
:1008F00011D1372000F07FFA7B680F2B08D8002237
:100900007968372000F05BFA0A4A7B68136002E0DE
:10091000012387F8333097F8333018463837BD460F
:1009200080BD00BF0010024083DE1B435801002041
:10093000001400400400002080B400AF00BFFDE7B9
:1009400080B400AF00BFFDE780B400AF00BFFDE79B
:1009500080B400AF00BFFDE780B400AF00BFFDE78B
:1009600080B400AF00BFBD4680BC704780B500AF0B
:10097000144B1B78012B0FD1134B1B8801339AB2F8
:10098000114B1A80104B1B88B3F5FA6F07D90E4B29
:100990004FF4FA621A8002E00A4B00221A70094BE7
:1009A0001B78012B09D1084B1B88282B05D9074B35
:1009B00001221A70044B00221A80054801F08EF9BA
:1009C00000BF80BD851B0020861B0020831B0020EC
:1009D0008800002080B500AF024801F00FFE00BF84
:1009E00080BD00BF0801002080B500AF024801F0C3
:1009F00075F900BF80BD00BF5801002080B586B0EA
:100A000000AFF860B9607A6000237B610AE0AFF361
:100A100000800146BB685A1CBA60CAB21A707B6972
:100A200001337B617A697B689A42F0DB7B68184608
:100A30001837BD4680BD80B586B000AFF860B9609C
:100A40007A6000237B6109E0BB685A1CBA601B789E
:100A5000184605F003F97B6901337B617A697B688D
:100A60009A42F1DB7B6818461837BD4680BD80B4DA
:100A700083B000AF78604FF0FF3318460C37BD46A7
:100A800080BC704780B483B000AF786039603B6849
:100A90004FF400525A60002318460C37BD4680BC04
:100AA000704780B483B000AF7860012318460C37DC
:100AB000BD4680BC704780B485B000AFF860B960B7
:100AC0007A60002318461437BD4680BC704700008A
:100AD00080B586B000AF7860144A154BD31A7B619D
:100AE0007B693B61134B1B68002B02D1114B124AEF
:100AF0001A60104B1A687B6813443A699A4207D20D
:100B000005F0B6FE03460C221A604FF0FF3309E0F1
:100B1000084B1B68FB60074B1A687B681344054A47
:100B20001360FB6818461837BD4680BD00000120E1
:100B30000004000098010020001E002080B400AFD7
:100B4000154B1B68144A43F001031360124B5A689B
:100B50001149124B13404B600F4B1B680E4A23F098
:100B6000847323F4803313600B4B1B680A4A23F40D
:100B700080231360084B5B68074A23F4FE0353602D
:100B8000054B4FF41F029A60054B4FF000629A60CC
:100B900000BFBD4680BC7047001002400000FFF857
:100BA00000ED00E0002103E00B4B5B5843500431A3
:100BB0000A480B4B42189A42F6D30A4A02E0002335
:100BC00042F8043B084B9A42F9D3FFF7B7FF05F010
:100BD00055FEFFF72DFB70476C75000800000020E4
:100BE0006C0000206C000020001E0020FEE70000CA
:100BF00080B500AF084B1B68074A43F01003136031
:100C0000032000F0D1F80F20FFF718FEFFF72EFDAC
:100C10000023184680BD00BF0020024080B400AF12
:100C2000054B1B781A46054B1B681344034A136097
:100C300000BFBD4680BC7047080000209C0100201A
:100C400080B400AF024B1B681846BD4680BC70479D
:100C50009C01002080B485B000AF78607B6803F011
:100C60000703FB600C4BDB68BB60BA684FF6FF0301
:100C70001340BB60FB681A02BB68134343F0BF63B9
:100C800043F40033BB60044ABB68D36000BF143731
:100C9000BD4680BC704700BF00ED00E080B400AFEF
:100CA000044BDB681B0A03F007031846BD4680BCF3
:100CB000704700BF00ED00E080B483B000AF034692
:100CC000FB7197F90730002B0BDBFB7903F01F0258
:100CD000064997F907305B09012000FA02F241F852
:100CE000232000BF0C37BD4680BC704700E100E008
:100CF00080B483B000AF03463960FB7197F90730C9
:100D0000002B0ADB3B68DAB20C4997F90730120175
:100D1000D2B20B4483F800230AE03B68DAB20849F8
:100D2000FB7903F00F03043B1201D2B20B441A7695
:100D300000BF0C37BD4680BC704700BF00E100E03B
:100D400000ED00E080B489B000AFF860B9607A606F
:100D5000FB6803F00703FB61FB69C3F10703042B86
:100D600028BF0423BB61FB690433062B02D9FB694E
:100D7000033B00E000237B614FF0FF32BB6902FAC6
:100D800003F3DA43BB681A407B699A404FF0FF31A6
:100D90007B6901FA03F3D9437B680B401343184680
:100DA0002437BD4680BC704780B582B000AF786004
:100DB0007868FFF74FFF00BF0837BD4680BD80B59C
:100DC00086B000AF0346B9607A60FB7300237B6195
:100DD000FFF764FF78617A68B9687869FFF7B2FF56
:100DE000024697F90F3011461846FFF781FF00BF02
:100DF0001837BD4680BD80B582B000AF0346FB7199
:100E000097F907301846FFF757FF00BF0837BD4670
:100E100080BD000080B584B000AF78600023FB7314
:100E20007B6893F82130022B05D07B6804229A63FB
:100E30000123FB73D6E07B681B681A687B681B681C
:100E400022F00E021A607B681B681A687B681B68B8
:100E500022F001021A607B681B681A46644B9A42B2
:100E600058D97B681B68634A93424FD07B681B68E4
:100E7000614A934248D07B681B68604A934240D0E5
:100E80007B681B685E4A934238D07B681B685D4A6A
:100E9000934230D07B681B685B4A934228D07B68C2
:100EA0001B68534A934220D07B681B68574A934281
:100EB00019D07B681B68564A934212D07B681B6826
:100EC000544A93420AD07B681B68534A934202D12A
:100ED0004FF480531BE04FF4803318E04FF48073DD
:100EE00015E0102313E0012311E04FF080730EE0B2
:100EF0004FF480130BE04FF4803308E04FF480533D
:100F000005E04FF4807302E0102300E00123434A20
:100F1000536057E07B681B68364A93424FD07B682A
:100F20001B68354A934248D07B681B68334A93421A
:100F300040D07B681B68324A934238D07B681B687C
:100F4000304A934230D07B681B682F4A934228D0A6
:100F50007B681B68264A934220D07B681B682B4A1B
:100F6000934219D07B681B68294A934212D07B6850
:100F70001B68284A93420AD07B681B68264A934222
:100F800002D14FF480531BE04FF4803318E04FF44C
:100F9000807315E0102313E0012311E04FF08073FC
:100FA0000EE04FF480130BE04FF4803308E04FF471
:100FB000805305E04FF4807302E0102300E001232A
:100FC000174A53607B68012283F821207B68002246
:100FD00083F820207B685B6B002B03D07B685B6B06
:100FE00078689847FB7B18461037BD4680BD00BF28
:100FF00080000240080002401C0002403000024015
:1010000044000240580002406C00024008040240C4
:101010001C04024030040240440402400004024028
:101020000000024080B48BB000AF786039600023CC
:101030007B6200233B6279E101227B6A02FA03F3BF
:10104000FB613B681B68FA691340BB61BA69FB69C5
:101050009A4240F068813B685B68964A93425ED052
:10106000944A934275D8944A934258D0924A9342F4
:101070006FD8924A934252D0904A934269D8904A8C
:1010800093424CD08E4A934263D88E4A934246D0C4
:101090008C4A93425DD8122B2AD8122B59D801A220
:1010A00052F823F01F110008F91000080B11000876
:1010B0004D11000853110008531100085311000886
:1010C0005311000853110008531100085311000870
:1010D0005311000853110008531100085311000860
:1010E00053110008531100080111000815110008E0
:1010F000754A934213D02CE03B68DB683B6229E0E1
:101100003B68DB6804333B6224E03B68DB68083300
:101110003B621FE03B68DB680C333B621AE03B68D4
:101120009B68002B02D104233B6213E03B689B6861
:10113000012B05D108233B627B68FA691A6109E03B
:1011400008233B627B68FA695A6103E000233B6233
:1011500000E000BFBB69FF2B01D87B6801E07B6822
:1011600004337B61BB69FF2B02D87B6A9B0002E0E2
:101170007B6A083B9B003B617B691A680F213B69D6
:1011800001FA03F3DB431A40396A3B6901FA03F3BE
:101190001A437B691A603B685B6803F08053002B3D
:1011A00000F0C180494B9B69484A43F001039361B9
:1011B000464B9B6903F00103BB60BB68444A7B6AF2
:1011C0009B08023352F82330FB607B6A03F0030371
:1011D0009B000F2202FA03F3DB43FA681340FB6023
:1011E0007B683C4A93421FD07B683B4A934219D0AC
:1011F0007B683A4A934213D07B68394A93420DD0B8
:101200007B68384A934207D07B68374A934201D1C2
:1012100005230AE0062308E0042306E0032304E094
:10122000022302E0012300E000237A6A02F00302B5
:1012300092009340FA681343FB6025497B6A9B0840
:101240000233FA6841F823203B685B6803F480337B
:10125000002B06D0254B1A682449BB6913430B6049
:1012600006E0224B1A68BB69DB43204913400B6040
:101270003B685B6803F40033002B06D01B4B5A68B5
:101280001A49BB6913434B6006E0184B5A68BB69A7
:10129000DB43164913404B603B685B6803F48013E3
:1012A000002B25D0114B9A681049BB6913438B6002
:1012B00025E000BF000032100000311000002210B5
:1012C0000000211000001210000011100010024058
:1012D0000000014000080140000C014000100140E6
:1012E0000014014000180140001C014000040140AE
:1012F000154B9A68BB69DB43134913408B603B680D
:101300005B6803F40013002B06D00F4BDA680E491C
:10131000BB691343CB6006E00B4BDA68BB69DB4368
:1013200009491340CB607B6A01337B623B681A68D2
:101330007B6A22FA03F3002B7FF47EAE00BF00BF6E
:101340002C37BD4680BC70470004014080B485B096
:1013500000AF78600B467B807B689A687B8813407F
:10136000002B02D00123FB7301E00023FB73FB7B06
:1013700018461437BD4680BC704780B483B000AFB8
:1013800078600B467B8013467B707B78002B03D004
:101390007A887B681A6103E07B881A047B681A618B
:1013A00000BF0C37BD4680BC7047000080B586B0DA
:1013B00000AF78607B68002B01D1012372E27B686B
:1013C0001B6803F00103002B00F08780924B5B68E1
:1013D00003F00C03042B0CD08F4B5B6803F00C0361
:1013E000082B12D18C4B5B6803F48033B3F5803F3C
:1013F0000BD1894B1B6803F40033002B6CD07B6846
:101400005B68002B68D101234CE27B685B68B3F515
:10141000803F06D1804B1B687F4A43F480331360C2
:101420002EE07B685B68002B0CD17B4B1B687A4AF3
:1014300023F480331360784B1B68774A23F48023AE
:1014400013601DE07B685B68B3F5A02F0CD1724B75
:101450001B68714A43F4802313606F4B1B686E4A0C
:1014600043F4803313600BE06B4B1B686A4A23F430
:1014700080331360684B1B68674A23F48023136032
:101480007B685B68002B13D0FFF7DAFB386108E05C
:10149000FFF7D6FB02463B69D31A642B01D903231D
:1014A00000E25D4B1B6803F40033002BF0D014E026
:1014B000FFF7C6FB386108E0FFF7C2FB02463B6955
:1014C000D31A642B01D90323ECE1534B1B6803F4BB
:1014D0000033002BF0D100E000BF7B681B6803F0F5
:1014E0000203002B63D04C4B5B6803F00C03002B12
:1014F0000BD0494B5B6803F00C03082B1CD1464B07
:101500005B6803F48033002B16D1434B1B6803F058
:101510000203002B05D07B681B69012B01D001233E
:10152000C0E13D4B1B6823F0F8027B685B69DB0080
:10153000394913430B603AE07B681B69002B20D0CC
:10154000364B01221A60FFF77BFB386108E0FFF79A
:1015500077FB02463B69D31A022B01D90323A1E191
:101560002D4B1B6803F00203002BF0D02A4B1B68A5
:1015700023F0F8027B685B69DB00274913430B60AB
:1015800015E0264B00221A60FFF75AFB386108E08D
:10159000FFF756FB02463B69D31A022B01D90323FE
:1015A00080E11D4B1B6803F00203002BF0D17B6828
:1015B0001B6803F00803002B3AD07B689B69002B63
:1015C00019D0174B01221A60FFF73AFB386108E087
:1015D000FFF736FB02463B69D31A022B01D90323DE
:1015E00060E10D4B5B6A03F00203002BF0D0012099
:1015F00000F008FB1CE00A4B00221A60FFF720FBFA
:1016000038610FE0FFF71CFB02463B69D31A022B3F
:1016100008D9032346E100BF001002400000424207
:1016200080044242924B5B6A03F00203002BE9D133
:101630007B681B6803F00403002B00F0A6800023E6
:10164000FB758B4BDB6903F08053002B0DD1884B6E
:10165000DB69874A43F08053D361854BDB6903F034
:101660008053BB60BB680123FB75824B1B6803F48E
:101670008073002B18D17F4B1B687E4A43F4807324
:101680001360FFF7DDFA386108E0FFF7D9FA024688
:101690003B69D31A642B01D9032303E1754B1B6803
:1016A00003F48073002BF0D07B68DB68012B06D13C
:1016B0006F4B1B6A6E4A43F0010313622DE07B6897
:1016C000DB68002B0CD16A4B1B6A694A23F00103CB
:1016D0001362674B1B6A664A23F0040313621CE023
:1016E0007B68DB68052B0CD1614B1B6A604A43F0B9
:1016F000040313625E4B1B6A5D4A43F001031362ED
:101700000BE05B4B1B6A5A4A23F001031362584BF0
:101710001B6A574A23F0040313627B68DB68002BC3
:1017200015D0FFF78DFA38610AE0FFF789FA024613
:101730003B69D31A41F28832934201D90323B1E0C5
:101740004B4B1B6A03F00203002BEED014E0FFF7B3
:1017500077FA38610AE0FFF773FA02463B69D31A59
:1017600041F28832934201D903239BE0404B1B6A2C
:1017700003F00203002BEED1FB7D012B05D13C4B86
:10178000DB693B4A23F08053D3617B68DB69002B24
:1017900000F08780364B5B6803F00C03082B61D0A8
:1017A0007B68DB69022B46D1334B00221A60FFF7BE
:1017B00047FA386108E0FFF743FA02463B69D31A5B
:1017C000022B01D903236DE0294B1B6803F0007342
:1017D000002BF0D17B681B6AB3F5803F08D1244B06
:1017E0005B6823F400327B689B68214913434B609C
:1017F0001F4B5B6823F474127B68196A7B685B6A11
:101800000B431B4913434B601B4B01221A60FFF72C
:1018100017FA386108E0FFF713FA02463B69D31A5A
:10182000022B01D903233DE0114B1B6803F0007329
:10183000002BF0D035E0104B00221A60FFF700FAC1
:10184000386108E0FFF7FCF902463B69D31A022B26
:1018500001D9032326E0064B1B6803F00073002B1D
:10186000F0D11EE07B68DB69012B07D1012319E071
:101870000010024000700040600042420B4B5B6869
:10188000FB60FB6803F480327B681B6A9A4206D1D6
:10189000FB6803F470127B685B6A9A4201D00123F3
:1018A00000E0002318461837BD4680BD00100240F6
:1018B00080B584B000AF786039607B68002B01D1BF
:1018C0000123D0E06A4B1B6803F007033A689A4291
:1018D00010D9674B1B6823F0070265493B68134327
:1018E0000B60634B1B6803F007033A689A4201D010
:1018F0000123B8E07B681B6803F00203002B20D0B3
:101900007B681B6803F00403002B05D0594B5B6810
:10191000584A43F4E06353607B681B6803F0080394
:10192000002B05D0534B5B68524A43F4605353601D
:10193000504B5B6823F0F0027B689B684D49134372
:101940004B607B681B6803F00103002B40D07B6871
:101950005B68012B07D1474B1B6803F40033002B56
:1019600015D101237FE07B685B68022B07D1414BD7
:101970001B6803F00073002B09D1012373E03D4B7A
:101980001B6803F00203002B01D101236BE0394BEC
:101990005B6823F003027B685B68364913434B6046
:1019A000FFF74EF9F8600AE0FFF74AF90246FB68D4
:1019B000D31A41F28832934201D9032353E02D4BCD
:1019C0005B6803F00C027B685B689B009A42EBD17A
:1019D000274B1B6803F007033A689A4210D2244B46
:1019E0001B6823F0070222493B6813430B60204B1E
:1019F0001B6803F007033A689A4201D0012332E0E2
:101A00007B681B6803F00403002B08D0194B5B684C
:101A100023F4E0627B68DB68164913434B607B6804
:101A20001B6803F00803002B09D0124B5B6823F4FA
:101A300060527B681B69DB000E4913434B6000F06A
:101A400021F802460B4B5B681B0903F00F030A49A0
:101A5000CB5C22FA03F3094A1360094B1B68184652
:101A6000FEF7ECFE002318461037BD4680BD00BFD0
:101A700000200240001002401875000800000020FD
:101A80000400002090B48AB000AF294B3C1D0FCB5E
:101A900084E80F0040F201233B800023FB61002318
:101AA000BB6100237B6200237B6100233B62214BEF
:101AB0005B68FB61FB6903F00C03042B02D0082B6D
:101AC00003D02BE01C4B3B622BE0FB699B0C03F02B
:101AD0000F0328333B4413F8243C7B61FB6903F478
:101AE0008033002B12D0134B5B685B0C03F00103B7
:101AF00028333B4413F8283CBB617B690E4A03FB47
:101B000002F2BB69B2FBF3F37B6204E07B690B4A30
:101B100002FB03F37B627B6A3B6202E0064B3B62A3
:101B200000BF3B6A18462837BD4690BC704700BFCF
:101B30004C7300080010024000127A0000093D00BA
:101B400080B400AF024B1B681846BD4680BC70478E
:101B50000000002080B500AFFFF7F2FF0246054B02
:101B60005B681B0A03F007030349CB5C22FA03F30B
:101B7000184680BD001002402875000880B500AFEF
:101B8000FFF7DEFF0246054B5B68DB0A03F0070345
:101B90000349CB5C22FA03F3184680BD00100240D3
:101BA0002875000880B483B000AF786039607B6826
:101BB0000F221A60114B5B6803F003027B685A60C6
:101BC0000E4B5B6803F0F0027B689A600B4B5B681E
:101BD00003F4E0627B68DA60084B5B68DB0803F4BF
:101BE000E0627B681A61064B1B6803F007023B68E2
:101BF0001A6000BF0C37BD4680BC70470010024021
:101C00000020024080B485B000AF78600A4B1B68AA
:101C10000A4AA2FB03235B0A7A6802FB03F3FB6018
:101C200000BFFB685A1EFA60002BF9D100BF00BF4D
:101C30001437BD4680BC704700000020D34D6210B1
:101C400080B582B000AF78607B68002B01D10123A2
:101C50001DE07B6893F83D30DBB2002B06D17B683A
:101C6000002283F83C207868FEF738FD7B6802226A
:101C700083F83D207B681A687B6804331946104658
:101C800000F01CFA7B68012283F83D2000231846EF
:101C90000837BD4680BD80B485B000AF78607B68F2
:101CA0001B68DA687B681B6842F00102DA607B68B7
:101CB0001B689B6803F00703FB60FB68062B07D0DB
:101CC0007B681B681A687B681B6842F001021A6017
:101CD000002318461437BD4680BC704780B582B0DB
:101CE00000AF78607B681B681B6903F00203022B5E
:101CF00022D17B681B68DB6803F00203022B1BD137
:101D00007B681B686FF002021A617B6801221A77F8
:101D10007B681B689B6903F00303002B03D0786882
:101D200000F0B1F905E0786800F0A4F9786800F0F7
:101D3000B3F97B6800221A777B681B681B6903F084
:101D40000403042B22D17B681B68DB6803F00403C7
:101D5000042B1BD17B681B686FF004021A617B683F
:101D600002221A777B681B689B6903F44073002B7F
:101D700003D0786800F087F905E0786800F07AF918
:101D8000786800F089F97B6800221A777B681B6805
:101D90001B6903F00803082B22D17B681B68DB68F2
:101DA00003F00803082B1BD17B681B686FF0080247
:101DB0001A617B6804221A777B681B68DB6903F071
:101DC0000303002B03D0786800F05DF905E0786824
:101DD00000F050F9786800F05FF97B6800221A770C
:101DE0007B681B681B6903F01003102B22D17B68F2
:101DF0001B68DB6803F01003102B1BD17B681B688A
:101E00006FF010021A617B6808221A777B681B68E2
:101E1000DB6903F44073002B03D0786800F033F9DA
:101E200005E0786800F026F9786800F035F97B68FD
:101E300000221A777B681B681B6903F00103012BE2
:101E40000ED17B681B68DB6803F00103012B07D10F
:101E50007B681B686FF001021A617868FEF7EEFB81
:101E60007B681B681B6903F08003802B0ED17B68A5
:101E70001B68DB6803F08003802B07D17B681B683D
:101E80006FF080021A61786800F075FA7B681B6851
:101E90001B6903F04003402B0ED17B681B68DB6895
:101EA00003F04003402B07D17B681B686FF04002B2
:101EB0001A61786800F0F9F87B681B681B6903F009
:101EC0002003202B0ED17B681B68DB6803F0200306
:101ED000202B07D17B681B686FF020021A6178689D
:101EE00000F040FA00BF0837BD4680BD80B584B021
:101EF00000AF786039607B6893F83C30012B01D1EA
:101F00000223B3E07B68012283F83C207B68022235
:101F100083F83D207B681B689B68FB60FB6823F0AF
:101F20007703FB60FB6823F47F43FB607B681B68DF
:101F3000FA689A603B681B68B3F5005F3ED0B3F562
:101F4000005F00F28780B3F5805F00F08580B3F515
:101F5000805F7FD8702B1AD0702B7BD8602B50D02D
:101F6000602B77D8502B3CD0502B73D8402B58D0B7
:101F7000402B6FD8302B64D0302B6BD8202B60D007
:101F8000202B67D8002B5CD0102B5AD062E07B68E6
:101F900018683B6899683B685A683B68DB6800F0E2
:101FA0007EF97B681B689B68FB60FB6843F07703E6
:101FB000FB607B681B68FA689A604EE07B68186873
:101FC0003B6899683B685A683B68DB6800F067F9D2
:101FD0007B681B689A687B681B6842F480429A6041
:101FE0003BE07B6818683B6859683B68DB681A46C9
:101FF00000F0DEF87B681B685021184600F035F9C8
:102000002BE07B6818683B6859683B68DB681A46B8
:1020100000F0FCF87B681B686021184600F025F989
:102020001BE07B6818683B6859683B68DB681A46A8
:1020300000F0BEF87B681B684021184600F015F9D7
:102040000BE07B681A683B681B681946104600F075
:102050000CF902E000BF00E000BF7B68012283F8BA
:102060003D207B68002283F83C200023184610376F
:10207000BD4680BD80B483B000AF786000BF0C3730
:10208000BD4680BC704780B483B000AF786000BFAD
:102090000C37BD4680BC704780B483B000AF786019
:1020A00000BF0C37BD4680BC704780B483B000AF22
:1020B000786000BF0C37BD4680BC704780B485B0E7
:1020C00000AF786039607B681B68FB607B68334ACF
:1020D000934213D07B68324A93420FD07B68B3F1AE
:1020E000804F0BD07B682F4A934207D07B682E4AE3
:1020F000934203D07B682D4A934208D1FB6823F0BA
:102100007003FB603B685B68FA681343FB607B68A5
:10211000224A934213D07B68214A93420FD07B68B6
:10212000B3F1804F0BD07B681E4A934207D07B6887
:102130001D4A934203D07B681C4A934208D1FB6836
:1021400023F44073FB603B68DB68FA681343FB6071
:10215000FB6823F080023B685B691343FB607B688C
:10216000FA681A603B689A687B68DA623B681A68AA
:102170007B689A627B68094A934203D07B68084A6D
:10218000934203D13B681A697B681A637B6801221A
:102190005A6100BF1437BD4680BC7047002C014017
:1021A000003401400004004000080040000C0040E2
:1021B00080B487B000AFF860B9607A60FB681B6AD2
:1021C0007B61FB681B6A23F00102FB681A62FB68F3
:1021D0009B693B613B6923F0F0033B617B681B011A
:1021E0003A6913433B617B6923F00A037B617A6997
:1021F000BB6813437B61FB683A699A61FB687A6943
:102200001A6200BF1C37BD4680BC704780B487B0DF
:1022100000AFF860B9607A60FB681B6A23F01002B7
:10222000FB681A62FB689B697B61FB681B6A3B6108
:102230007B6923F470437B617B681B037A691343DA
:102240007B613B6923F0A0033B61BB681B013A69DA
:1022500013433B61FB687A699A61FB683A691A62C9
:1022600000BF1C37BD4680BC704780B485B000AF4E
:10227000786039607B689B68FB60FB6823F07003C3
:10228000FB603A68FB68134343F00703FB607B681D
:10229000FA689A6000BF1437BD4680BC704780B4AE
:1022A00087B000AFF860B9607A603B60FB689B68FC
:1022B0007B617B6923F47F437B613B681A027B6807
:1022C0001A43BB6813437A6913437B61FB687A69DD
:1022D0009A6000BF1C37BD4680BC704780B485B093
:1022E00000AF786039607B6893F83C30012B01D1F6
:1022F000022332E07B68012283F83C207B680222C3
:1023000083F83D207B681B685B68FB607B681B680B
:102310009B68BB60FB6823F07003FB603B681B6835
:10232000FA681343FB60BB6823F08003BB603B6823
:102330005B68BA681343BB607B681B68FA685A60C5
:102340007B681B68BA689A607B68012283F83D202D
:102350007B68002283F83C20002318461437BD46D2
:1023600080BC704780B483B000AF786000BF0C378A
:10237000BD4680BC704780B483B000AF786000BFBA
:102380000C37BD4680BC704780B582B000AF786026
:102390007B68002B01D101233FE07B6893F8393043
:1023A000DBB2002B06D17B68002283F838207868E6
:1023B000FEF7B8F97B68242283F839207B681B6814
:1023C000DA687B681B6822F40052DA60786800F0F3
:1023D0008BFB7B681B681A697B681B6822F4904240
:1023E0001A617B681B685A697B681B6822F02A02A5
:1023F0005A617B681B68DA687B681B6842F400528C
:10240000DA607B680022DA637B68202283F8392057
:102410007B68202283F83A20002318460837BD46FF
:1024200080BD80B588B002AFF860B9603B601346EC
:10243000FB8000237B61FB6893F83930DBB2202BF3
:1024400040F08380BB68002B02D0FB88002B01D1B9
:1024500001237BE0FB6893F83830012B01D1022384
:1024600074E0FB68012283F83820FB680022DA63FD
:10247000FB68212283F83920FEF7E2FB7861FB68D4
:10248000FA889A84FB68FA88DA8442E0FB68DB8C7D
:102490009BB2013B9AB2FB68DA84FB689B68B3F598
:1024A000805F22D13B6800937B6900228021F8681D
:1024B00000F0B0F90346002B01D0032346E0BB68CF
:1024C0003B613B691B881A46FB681B68C2F3080224
:1024D0005A60FB681B69002B03D1BB680233BB60E9
:1024E00017E0BB680133BB6013E03B6800937B6976
:1024F00000228021F86800F08DF90346002B01D0FE
:10250000032323E0BB685A1CBA601A78FB681B6877
:102510005A60FB68DB8C9BB2002BB7D13B68009301
:102520007B6900224021F86800F074F90346002B13
:1025300001D003230AE0FB68202283F83920FB68DE
:10254000002283F83820002300E0022318461837C1
:10255000BD4680BD80B485B000AFF860B960134659
:10256000FB80FB6893F83A30DBB2202B40D1BB688C
:10257000002B02D0FB88002B01D1012339E0FB683E
:1025800093F83830012B01D1022332E0FB6801229D
:1025900083F83820FB68BA689A62FB68FA889A85E3
:1025A000FB68FA88DA85FB680022DA63FB6822227E
:1025B00083F83A20FB68002283F83820FB681B6808
:1025C000DA68FB681B6842F48072DA60FB681B689B
:1025D0005A69FB681B6842F001025A61FB681B687C
:1025E000DA68FB681B6842F02002DA60002300E032
:1025F000022318461437BD4680BC704780B588B0AA
:1026000000AF78607B681B681B68FB617B681B6898
:10261000DB68BB617B681B685B697B6100233B6196
:102620000023FB60FB6903F00F033B613B69002B58
:102630000DD1FB6903F02003002B08D0BB6903F028
:102640002003002B03D0786800F0CCF9CBE03B6985
:10265000002B00F0AB807B6903F00103002B05D158
:10266000BB6903F49073002B00F0A080FB6903F0BA
:102670000103002B0AD0BB6903F48073002B05D043
:102680007B68DB6B43F001027B68DA63FB6903F074
:102690000403002B0AD07B6903F00103002B05D053
:1026A0007B68DB6B43F002027B68DA63FB6903F053
:1026B0000203002B0AD07B6903F00103002B05D035
:1026C0007B68DB6B43F004027B68DA63FB6903F031
:1026D0000803002B0AD07B6903F00103002B05D00F
:1026E0007B68DB6B43F008027B68DA637B68DB6B3B
:1026F000002B77D0FB6903F02003002B07D0BB69C8
:1027000003F02003002B02D0786800F06BF97B689F
:102710001B685B6903F04003002B14BF01230023F7
:10272000DBB2FB607B68DB6B03F00803002B02D19C
:10273000FB68002B31D0786800F0B6F87B681B6826
:102740005B6903F04003002B23D07B681B685A6948
:102750007B681B6822F040025A617B685B6B002B30
:1027600013D07B685B6B214A5A637B685B6B1846AE
:10277000FEF750FB0346002B16D07B685B6B5B6B50
:102780007A68526B104698470EE0786800F039F886
:102790000AE0786800F035F806E0786800F031F873
:1027A0007B680022DA631DE000BF1BE0FB6903F0D9
:1027B0008003002B08D0BB6903F08003002B03D0FB
:1027C000786800F0A2F80EE0FB6903F04003002BEC
:1027D00009D0BB6903F04003002B04D0786800F0F7
:1027E000E9F800E000BF2037BD4680BDE3280008BF
:1027F00080B483B000AF786000BF0C37BD4680BCAA
:10280000704780B483B000AF786000BF0C37BD461E
:1028100080BC704780B584B000AFF860B9603B60A1
:102820001346FB712CE0BB69B3F1FF3F28D0BB69B5
:10283000002B07D0FEF704FA02463B68D31ABA69A8
:102840009A421DD2FB681B68DA68FB681B6822F499
:10285000D072DA60FB681B685A69FB681B6822F05B
:1028600001025A61FB68202283F83920FB6820228C
:1028700083F83A20FB68002283F8382003230FE016
:10288000FB681B681A68BB681340BA689A420CBFA1
:1028900001230023DBB21A46FB799A42C3D00023FE
:1028A00018461037BD4680BD80B483B000AF786055
:1028B0007B681B68DA687B681B6822F49072DA60B8
:1028C0007B681B685A697B681B6822F001025A61A9
:1028D0007B68202283F83A2000BF0C37BD4680BCBD
:1028E000704780B584B000AF78607B685B6AFB603E
:1028F000FB680022DA85FB680022DA84F868FFF7BB
:1029000080FF00BF1037BD4680BD80B485B000AFEA
:1029100078607B6893F83930DBB2212B44D17B6837
:102920009B68B3F5805F1AD17B681B6AFB60FB680C
:102930001B881A467B681B68C2F308025A607B68D2
:102940001B69002B05D17B681B6A9A1C7B681A6285
:102950000EE07B681B6A5A1C7B681A6208E07B6881
:102960001B6A591C7A6811621A787B681B685A6066
:102970007B68DB8C9BB2013B9BB27A681946D184A1
:10298000002B0FD17B681B68DA687B681B6822F01C
:102990008002DA607B681B68DA687B681B6842F03B
:1029A0004002DA60002300E0022318461437BD46D7
:1029B00080BC704780B582B000AF78607B681B68D0
:1029C000DA687B681B6822F04002DA607B682022AC
:1029D00083F839207868FFF70BFF00231846083783
:1029E000BD4680BD80B584B000AF78607B6893F849
:1029F0003A30DBB2222B71D17B689B68B3F5805FE4
:102A000023D17B689B6AFB607B681B69002B0ED11E
:102A10007B681B685B689BB2C3F308039AB2FB68D0
:102A20001A807B689B6A9A1C7B689A6229E07B68A3
:102A30001B685B689BB2DBB29AB2FB681A807B684A
:102A40009B6A5A1C7B689A621BE07B681B69002B9F
:102A50000AD17B681B6858687B689B6A591C7A6836
:102A60009162C2B21A700CE07B681B685B68DAB2D4
:102A70007B689B6A581C7968886202F07F02D2B238
:102A80001A707B68DB8D9BB2013B9BB27A6819465A
:102A9000D185002B20D17B681B68DA687B681B68B6
:102AA00022F02002DA607B681B68DA687B681B68AA
:102AB00022F48072DA607B681B685A697B681B6845
:102AC00022F001025A617B68202283F83A2078685C
:102AD00003F066FA002302E0002300E00223184618
:102AE0001037BD4680BD000080B584B000AF78606F
:102AF0007B681B681B6923F440517B68DA687B683C
:102B00001B680A431A617B689A687B681B691A43D1
:102B10007B685B691343FB607B681B68DB6823F49D
:102B2000B05323F00C037A681268F9680B43D36042
:102B30007B681B685B6923F440717B689A697B68DA
:102B40001B680A435A617B681B68524A93424ED104
:102B5000FFF714F8B860BA6813469B0013449A0054
:102B60001A447B685B689B00B2FBF3F34A4AA2FB02
:102B700003235B091901BA6813469B0013449A00AA
:102B80001A447B685B689B00B2FBF3F2424BA3FBE9
:102B900002035B09642000FB03F3D31A1B013233E9
:102BA0003D4AA2FB03235B0903F0F0031944BA6812
:102BB00013469B0013449A001A447B685B689B0091
:102BC000B2FBF3F2344BA3FB02035B09642000FB6E
:102BD00003F3D31A1B0132332F4AA2FB03235B09F1
:102BE00003F00F027B681B680A449A604DE0FEF711
:102BF000B1FFB860BA6813469B0013449A001A44A8
:102C00007B685B689B00B2FBF3F3234AA2FB0323C0
:102C10005B091901BA6813469B0013449A001A44D1
:102C20007B685B689B00B2FBF3F21B4BA3FB0203C8
:102C30005B09642000FB03F3D31A1B013233164AED
:102C4000A2FB03235B0903F0F0031944BA6813469F
:102C50009B0013449A001A447B685B689B00B2FB9C
:102C6000F3F20D4BA3FB02035B09642000FB03F3AB
:102C7000D31A1B013233084AA2FB03235B0903F07A
:102C80000F027B681B680A449A6000BF1037BD467C
:102C900080BD00BF003801401F85EB5180B485B076
:102CA00000AFEFF30583BB60BB68002B0FD1EFF3E0
:102CB00010837B607B68002B09D1104B1B68022BB3
:102CC00009D1EFF311833B603B68002B03D06FF019
:102CD0000503FB600CE0094B1B68002B05D1074B7B
:102CE00001221A600023FB6002E04FF0FF33FB601B
:102CF000FB6818461437BD4680BC7047A001002011
:102D000080B584B000AFEFF30583BB60BB68002BD8
:102D10000FD1EFF310837B607B68002B09D1114B3F
:102D20001B68022B09D1EFF311833B603B68002B3A
:102D300003D06FF00503FB600EE00A4B1B68012B0C
:102D400007D1084B02221A6001F040FA0023FB6011
:102D500002E04FF0FF33FB60FB6818461037BD46BA
:102D600080BD00BFA001002080B592B004AFF86024
:102D7000B9607A6000237B61EFF305837B627B6A35
:102D8000002B40F09480EFF310833B623B6A002BF2
:102D900040F08D80484B1B68022B06D1EFF3118366
:102DA000FB61FB69002B40F08280FB68002B7ED02A
:102DB00080233B631823FB620023FB7607F11B0390
:102DC0007B634FF0FF33BB627B68002B45D07B6891
:102DD0001B68002B02D07B681B687B637B689B6948
:102DE000002B02D07B689B69FB62FB6A002B08D03A
:102DF000FB6A382B05D87B685B6803F00103002B66
:102E000001D0002354E07B685B69002B03D07B6812
:102E10005B699B083B637B689B68002B0ED07B68DB
:102E2000DB68A72B0AD97B681B69002B06D07B685F
:102E30005B69002B02D00123BB6210E07B689B68BA
:102E4000002B0CD17B68DB68002B08D17B681B69E9
:102E5000002B04D10023BB6201E00023BB62BB6AEC
:102E6000012B10D17B681B697A68926802920193EA
:102E7000FB6A0093BB683A6B796BF86800F0BCFFA3
:102E800003467B6113E0BB6A002B10D13B6B9AB207
:102E900007F114030193FB6A0093BB68796BF86830
:102EA00001F009F80346012B01D000237B617B6907
:102EB00018463837BD4680BDA001002080B586B0D9
:102EC00000AF7860EFF305833B613B69002B0FD1C6
:102ED000EFF31083FB60FB68002B09D10D4B1B68DF
:102EE000022B09D1EFF31183BB60BB68002B03D029
:102EF0006FF005037B6107E000237B617B68002B9B
:102F000002D0786801F02CF97B6918461837BD4665
:102F100080BD00BFA001002080B485B000AFF86084
:102F2000B9607A60FB68064A1A60BB68054A1A6095
:102F30007B6880221A6000BF1437BD4680BC704792
:102F4000A40100204C02002080B485B000AFF860DE
:102F5000B9607A60FB68074A1A60BB68064A1A6063
:102F60007B684FF480721A6000BF1437BD4680BC86
:102F7000704700BF4C040020F404002080B483B0EC
:102F800000AF78607B6803F108027B685A607B6859
:102F90004FF0FF329A607B6803F108027B68DA60C9
:102FA0007B6803F108027B681A617B6800221A6063
:102FB00000BF0C37BD4680BC704780B483B000AF03
:102FC00078607B6800221A6100BF0C37BD4680BC68
:102FD000704780B485B000AF786039607B685B680B
:102FE000FB603B68FA685A60FB689A683B689A60C5
:102FF000FB689B683A685A60FB683A689A603B686D
:103000007A681A617B681B685A1C7B681A6000BF6B
:103010001437BD4680BC704780B485B000AF78607F
:1030200039603B681B68BB60BB68B3F1FF3F03D1ED
:103030007B681B69FB600CE07B680833FB6002E087
:10304000FB685B68FB60FB685B681B68BA689A4258
:10305000F6D2FB685A683B685A603B685B683A681E
:103060009A603B68FA689A60FB683A685A603B6805
:103070007A681A617B681B685A1C7B681A6000BFFB
:103080001437BD4680BC704780B485B000AF78600F
:103090007B681B69FB607B685B687A6892689A60F2
:1030A0007B689B687A6852685A60FB685B687A68DC
:1030B0009A4203D17B689A68FB685A607B68002259
:1030C0001A61FB681B685A1EFB681A60FB681B6864
:1030D00018461437BD4680BC7047000080B584B0E8
:1030E00000AF786039607B68FB60FB68002B0BD118
:1030F0004FF0500383F31188BFF36F8FBFF34F8FEF
:10310000BB6000BF00BFFDE702F0C8FAFB681A68A9
:10311000FB68DB6BF968096C01FB03F31A44FB687D
:103120005A60FB6800229A63FB681A68FB689A6021
:10313000FB681A68FB68DB6B013BF968096C01FBF3
:1031400003F31A44FB68DA60FB68FF2283F844202B
:10315000FB68FF2283F845203B68002B14D1FB68F5
:103160001B69002B1AD0FB681033184601F0CEFA09
:103170000346002B12D00D4B4FF080521A60BFF364
:103180004F8FBFF36F8F09E0FB6810331846FFF7CE
:10319000F5FEFB6824331846FFF7F0FE02F0AEFAA6
:1031A000012318461037BD4680BD00BF04ED00E086
:1031B00080B58EB002AFF860B9607A603B60FB68A2
:1031C000002B0BD14FF0500383F31188BFF36F8FA7
:1031D000BFF34F8FBB6200BF00BFFDE73B68002B12
:1031E0000BD14FF0500383F31188BFF36F8FBFF300
:1031F0004F8F7B6200BF00BFFDE77B68002B02D0D2
:10320000BB68002B01D0012300E00023002B0BD171
:103210004FF0500383F31188BFF36F8FBFF34F8FCD
:103220003B6200BF00BFFDE77B68002B02D1BB689B
:10323000002B01D1012300E00023002B0BD14FF024
:10324000500383F31188BFF36F8FBFF34F8FFB6180
:1032500000BF00BFFDE750237B617B69502B0BD083
:103260004FF0500383F31188BFF36F8FBFF34F8F7D
:10327000BB6100BF00BFFDE73B68FB62FB6A002B40
:103280000DD0FB6A012283F8462097F83820FB6AAC
:10329000009313467A68B968F86800F044F8FB6A4E
:1032A00018463037BD4680BD80B58AB002AFF860A1
:1032B000B9601346FB71FB68002B0BD14FF0500334
:1032C00083F31188BFF36F8FBFF34F8F3B6100BF54
:1032D00000BFFDE7BB68002B02D10023FB6104E0C7
:1032E000FB68BA6802FB03F3FB61FB6950331846C5
:1032F00002F0D6FAB861BB69002B0FD0BB6950331E
:103300007B61BB69002283F84620FA79BB69009390
:1033100013467A69B968F86800F005F8BB69184681
:103320002037BD4680BD80B584B000AFF860B9607D
:103330007A60FB70BB68002B03D1BB69BA691A6065
:1033400002E0BB697A681A60BB69FA68DA63BB6934
:10335000BA681A640121B869FFF7C0FEBB69FA7840
:1033600083F84C2000BF1037BD4680BD80B582B0C9
:1033700000AF78607B68002B0ED07B6800225A601B
:103380007B6800221A607B680022DA60002300223A
:103390000021786800F01CF800BF0837BD4680BDEA
:1033A00080B586B000AF0346FB7101237B6100232B
:1033B0003B61FB791A4639697869FFF775FFF86058
:1033C000F868FFF7D3FFFB6818461837BD4680BD85
:1033D00080B58EB000AFF860B9607A603B600023C2
:1033E0007B63FB683B633B6B002B0BD14FF05003BF
:1033F00083F31188BFF36F8FBFF34F8FBB6200BFA2
:1034000000BFFDE7BB68002B03D13B6B1B6C002B9F
:1034100001D1012300E00023002B0BD14FF050031A
:1034200083F31188BFF36F8FBFF34F8F7B6200BFB1
:1034300000BFFDE73B68022B03D13B6BDB6B012B2D
:1034400001D1012300E00023002B0BD14FF05003EA
:1034500083F31188BFF36F8FBFF34F8F3B6200BFC1
:1034600000BFFDE701F01CFB0346002B02D17B6887
:10347000002B01D1012300E00023002B0BD14FF0E2
:10348000500383F31188BFF36F8FBFF34F8FFB613E
:1034900000BF00BFFDE702F001F93B6B9A6B3B6B8D
:1034A000DB6B9A4202D33B68022B29D13A68B96898
:1034B000386B00F034FBF8623B6B5B6A002B10D07A
:1034C0003B6B2433184601F021F90346002B13D03F
:1034D0003F4B4FF080521A60BFF34F8FBFF36F8F97
:1034E0000AE0FB6A002B07D0394B4FF080521A607C
:1034F000BFF34F8FBFF36F8F02F000F9012363E03A
:103500007B68002B03D102F0F9F800235CE07B6BB1
:10351000002B06D107F11403184601F05BF90123D3
:103520007B6302F0EBF800F0C1FE02F0B7F83B6BF2
:1035300093F844305BB2B3F1FF3F03D13B6B002201
:1035400083F844203B6B93F845305BB2B3F1FF3F07
:1035500003D13B6B002283F8452002F0CFF83A1DDF
:1035600007F114031146184601F04AF90346002BEF
:1035700024D1386B00F0CBFB0346002B18D03B6BFB
:1035800010337A681146184601F06EF8386B00F077
:1035900056FB00F099FE0346002B7FF47CAF0C4BEA
:1035A0004FF080521A60BFF34F8FBFF36F8F72E7F7
:1035B000386B00F044FB00F087FE6CE7386B00F0DE
:1035C0003EFB00F081FE002318463837BD4680BD23
:1035D00004ED00E080B58EB000AFF860B9607A60AD
:1035E0003B60FB683B633B6B002B0BD14FF0500300
:1035F00083F31188BFF36F8FBFF34F8F7B6200BFE0
:1036000000BFFDE7BB68002B03D13B6B1B6C002B9D
:1036100001D1012300E00023002B0BD14FF0500318
:1036200083F31188BFF36F8FBFF34F8F3B6200BFEF
:1036300000BFFDE73B68022B03D13B6BDB6B012B2B
:1036400001D1012300E00023002B0BD14FF05003E8
:1036500083F31188BFF36F8FBFF34F8FFB6100BF00
:1036600000BFFDE702F0DCF8EFF311824FF05003EA
:1036700083F31188BFF36F8FBFF34F8FBA617B6104
:10368000BB69FB623B6B9A6B3B6BDB6B9A4202D371
:103690003B68022B2CD13B6B93F8453087F82B30DD
:1036A0003A68B968386B00F03AFA97F92B30B3F101
:1036B000FF3F12D13B6B5B6A002B16D03B6B243370
:1036C000184601F023F80346002B0ED07B68002B30
:1036D0000BD07B6801221A6007E097F82B3001338A
:1036E000DBB25AB23B6B83F8452001237B6301E0D8
:1036F00000237B63FB6A3B613B6983F3118800BF56
:103700007B6B18463837BD4680BD000080B58CB055
:1037100000AFF860B9607A600023FB62FB68BB62AF
:10372000BB6A002B0BD14FF0500383F31188BFF31A
:103730006F8FBFF34F8F3B6200BF00BFFDE7BB68D9
:10374000002B03D1BB6A1B6C002B01D1012300E0CD
:103750000023002B0BD14FF0500383F31188BFF3EC
:103760006F8FBFF34F8FFB6100BF00BFFDE701F01C
:1037700097F90346002B02D17B68002B01D101236E
:1037800000E00023002B0BD14FF0500383F311888E
:10379000BFF36F8FBFF34F8FBB6100BF00BFFDE76B
:1037A00001F07CFFBB6A9B6B7B627B6A002B1FD0A6
:1037B000B968B86A00F01DFA7B6A5A1EBB6A9A6340
:1037C000BB6A1B69002B0FD0BB6A1033184600F090
:1037D0009DFF0346002B07D03C4B4FF080521A60F0
:1037E000BFF34F8FBFF36F8F01F088FF012369E0B4
:1037F0007B68002B03D101F081FF002362E0FB6AAC
:10380000002B06D107F11003184600F0E3FF012357
:10381000FB6201F073FF00F049FD01F03FFFBB6A5E
:1038200093F844305BB2B3F1FF3F03D1BB6A00228F
:1038300083F84420BB6A93F845305BB2B3F1FF3F95
:1038400003D1BB6A002283F8452001F057FF3A1DDF
:1038500007F110031146184600F0D2FF0346002B73
:1038600023D1B86A00F03DFA0346002B17D0BB6A9B
:1038700024337A681146184600F0F6FEB86A00F064
:10388000DEF900F021FD0346002B89D10F4B4FF0EC
:1038900080521A60BFF34F8FBFF36F8F80E7B86A13
:1038A00000F0CDF900F010FD7AE7B86A00F0C7F932
:1038B00000F00AFDB86A00F014FA0346002B3FF44A
:1038C0006FAF002318463037BD4680BD04ED00E0E1
:1038D00080B58EB000AF7860396000237B637B6871
:1038E000FB6200233B63FB6A002B0BD14FF05003BC
:1038F00083F31188BFF36F8FBFF34F8F3B6200BF1D
:1039000000BFFDE7FB6A1B6C002B0BD04FF0500390
:1039100083F31188BFF36F8FBFF34F8FFB6100BF3D
:1039200000BFFDE701F0BCF80346002B02D13B6865
:10393000002B01D1012300E00023002B0BD14FF01D
:10394000500383F31188BFF36F8FBFF34F8FBB61B9
:1039500000BF00BFFDE701F0A1FEFB6A9B6BBB62ED
:10396000BB6A002B24D0BB6A5A1EFB6A9A63FB6AAF
:103970001B68002B04D101F017FA0246FB6A5A605B
:10398000FB6A1B69002B0FD0FB6A1033184600F04E
:10399000BDFE0346002B07D0544B4FF080521A60F7
:1039A000BFF34F8FBFF36F8F01F0A8FE012398E0A4
:1039B0003B68002B12D13B6B002B0BD04FF0500318
:1039C00083F31188BFF36F8FBFF34F8F7B6100BF0D
:1039D00000BFFDE701F092FE002382E07B6B002B2D
:1039E00006D107F10C03184600F0F4FE01237B63B7
:1039F00001F084FE00F05AFC01F050FEFB6A93F8DF
:103A000044305BB2B3F1FF3F03D1FB6A002283F87D
:103A10004420FB6A93F845305BB2B3F1FF3F03D11A
:103A2000FB6A002283F8452001F068FE3A4607F160
:103A30000C031146184600F0E3FE0346002B32D17A
:103A4000F86A00F04EF90346002B26D0FB6A1B688B
:103A5000002B09D101F022FEFB6A5B68184601F0D9
:103A60003DF8386301F04AFEFB6A24333A68114698
:103A7000184600F0F9FDF86A00F0E1F800F024FCC7
:103A80000346002B7FF467AF184B4FF080521A604B
:103A9000BFF34F8FBFF36F8F5DE7F86A00F0CFF889
:103AA00000F012FC57E7F86A00F0C9F800F00CFCCF
:103AB000F86A00F016F90346002B3FF44CAF3B6B5D
:103AC000002B0DD001F0EAFDF86A00F011F87862E1
:103AD000FB6A5B68796A184601F0DEF801F00EFEB9
:103AE000002318463837BD4680BD00BF04ED00E016
:103AF00080B485B000AF78607B685B6A002B06D02D
:103B00007B681B6B1B68C3F13803FB6001E000237B
:103B1000FB60FB6818461437BD4680BC704780B513
:103B200086B000AFF860B9607A6000237B61FB6803
:103B30009B6B3B61FB681B6C002B0DD1FB681B680A
:103B4000002B4DD1FB685B68184601F035F87861B1
:103B5000FB6800225A6043E07B68002B19D1FB68A8
:103B60009868FB681B6C1A46B96802F0AEFEFB68E9
:103B70009A68FB681B6C1A44FB689A60FB689A6839
:103B8000FB685B689A422BD3FB681A68FB689A60F3
:103B900026E0FB68D868FB681B6C1A46B96802F01F
:103BA00094FEFB68DA68FB681B6C5B421A44FB6896
:103BB000DA60FB68DA68FB681B689A4207D2FB6828
:103BC0005A68FB681B6C5B421A44FB68DA607B68CE
:103BD000022B05D13B69002B02D03B69013B3B61C5
:103BE0003B695A1CFB689A637B6918461837BD46C7
:103BF00080BD80B582B000AF786039607B681B6C97
:103C0000002B18D07B68DA687B681B6C1A447B68D1
:103C1000DA607B68DA687B685B689A4203D37B680A
:103C20001A687B68DA607B68D9687B681B6C1A4607
:103C3000386802F04AFE00BF0837BD4680BD80B537
:103C400084B000AF786001F029FD7B6893F84530BF
:103C5000FB7311E07B685B6A002B12D07B68243316
:103C6000184600F053FD0346002B01D000F02CFE57
:103C7000FB7B013BDBB2FB7397F90F30002BE9DCD8
:103C800000E000BF7B68FF2283F8452001F036FD8D
:103C900001F004FD7B6893F84430BB7311E07B684E
:103CA0001B69002B12D07B681033184600F02EFDE4
:103CB0000346002B01D000F007FEBB7B013BDBB2CB
:103CC000BB7397F90E30002BE9DC00E000BF7B6886
:103CD000FF2283F8442001F011FD00BF1037BD46DC
:103CE00080BD80B584B000AF786001F0D7FC7B6800
:103CF0009B6B002B02D10123FB6001E00023FB60E2
:103D000001F0FCFCFB6818461037BD4680BD80B54D
:103D100084B000AF786001F0C1FC7B689A6B7B686F
:103D2000DB6B9A4202D10123FB6001E00023FB60C0
:103D300001F0E4FCFB6818461037BD4680BD00006A
:103D400080B485B000AF786039600023FB6014E078
:103D50000E4AFB6852F83330002B0BD10B49FB683D
:103D60003A6841F83320094AFB68DB0013447A685B
:103D70005A6006E0FB680133FB60FB68072BE7D95C
:103D800000BF00BF1437BD4680BC7047F408002058
:103D900080B586B000AFF860B9607A60FB687B617F
:103DA00001F07CFC7B6993F844305BB2B3F1FF3FD8
:103DB00003D17B69002283F844207B6993F8453066
:103DC0005BB2B3F1FF3F03D17B69002283F845204A
:103DD00001F094FC7B699B6B002B06D17B6924333B
:103DE0007A68B968184600F065FC7869FFF727FF24
:103DF00000BF1837BD4680BD80B58EB004AFF860F7
:103E0000B9607A603B607B6B002B0BD14FF05003A5
:103E100083F31188BFF36F8FBFF34F8F3B6200BFF7
:103E200000BFFDE7BB6B002B0BD14FF0500383F3BA
:103E30001188BFF36F8FBFF34F8FFB6100BF00BFCF
:103E4000FDE7A8233B613B69A82B0BD04FF0500343
:103E500083F31188BFF36F8FBFF34F8FBB6100BF38
:103E600000BFFDE7BB6B002B1ED07B6B002B1BD074
:103E7000BB6B7B627B6A7A6B1A637B6A022283F874
:103E8000A520002303937B6A029307F11403019397
:103E90003B6B00933B687A68B968F86800F050F8AB
:103EA000786A00F0EDF801E000237B617B69184639
:103EB0002837BD4680BD80B58CB004AFF860B960CE
:103EC0003B601346FB80FB889B00184601F0E8FC32
:103ED00078617B69002B0ED0A82001F0E1FCF8612D
:103EE000FB69002B03D0FB697A691A6305E07869E6
:103EF00001F09EFD01E00023FB61FB69002B17D060
:103F0000FB69002283F8A520FA8800230393FB694C
:103F10000293FB6A0193BB6A00933B68B968F86837
:103F200000F00EF8F86900F0ABF80123BB6102E085
:103F30004FF0FF33BB61BB6918462037BD4680BDDB
:103F400080B588B000AFF860B9607A603B603B6BC9
:103F5000186B7B689B001A46A52102F0E5FB3B6BC2
:103F60001A6B7B6803F18043013B9B001344BB61E8
:103F7000BB6923F00703BB61BB6903F00703002B98
:103F80000BD04FF0500383F31188BFF36F8FBFF353
:103F90004F8F7B6100BF00BFFDE70023FB6112E094
:103FA000BA68FB69134419783A6BFB6913443433DC
:103FB0000A461A70BA68FB6913441B78002B06D0B6
:103FC000FB690133FB61FB690F2BE9D900E000BFFE
:103FD0003B6B002283F84320BB6A372B01D9372380
:103FE000BB623B6BBA6ADA623B6BBA6ADA643B6B00
:103FF00000221A653B6B04331846FEF7DEFF3B6B6D
:1040000018331846FEF7D9FF3B6B3A6B1A61BB6A4F
:10401000C3F138023B6B9A613B6B3A6B5A623B6B64
:104020000022C3F8A0203B6B002283F8A4203B6B46
:1040300054334C220021184602F076FB3B6B0D4AAC
:104040009A653B6B0C4ADA653B6B0C4A1A663A6818
:10405000F968B86901F030FA02463B6B1A60FB6AF6
:10406000002B02D0FB6A3A6B1A6000BF2037BD46B6
:1040700080BD00BFB41C00201C1D0020841D00203A
:1040800080B582B000AF786001F008FB2D4B1B6853
:1040900001332C4A13602C4B1B68002B09D12A4A90
:1040A0007B681360274B1B68012B10D100F030FC9C
:1040B0000DE0264B1B68002B09D1234B1B68DA6AE5
:1040C0007B68DB6A9A4202D81F4A7B681360204BE8
:1040D0001B6801331E4A13601D4B1A687B685A64C3
:1040E0007B68DA6A1B4B1B689A4203D97B68DB6AE0
:1040F000184A13607B68DA6A13469B0013449B00DE
:10410000154A1A447B68043319461046FEF761FFCE
:1041100001F0F4FA0D4B1B68002B0ED00A4B1B6804
:10412000DA6A7B68DB6A9A4207D20C4B4FF0805206
:104130001A60BFF34F8FBFF36F8F00BF0837BD46C4
:1041400080BD00BF080E002034090020140E00209E
:10415000240E0020100E00203809002004ED00E09D
:1041600080B584B000AF78600023FB607B68002BD3
:1041700018D0144B1B68002B0BD04FF0500383F367
:104180001188BFF36F8FBFF34F8FBB6000BF00BFBD
:10419000FDE700F08BF80021786800F019FE00F0D0
:1041A00093F8F860FB68002B07D1074B4FF0805263
:1041B0001A60BFF34F8FBFF36F8F00BF1037BD463C
:1041C00080BD00BF300E002004ED00E080B58AB055
:1041D00004AF0023BB6000237B603A46391D07F122
:1041E00008031846FEF798FE39687B68BA680292A1
:1041F00001930023009300230A4624492448FFF733
:10420000FBFD0346234A1360224B1B68002B02D0A0
:1042100001237B6101E000237B617B69012B02D1DB
:1042200000F02AFE78617B69012B1BD14FF050030F
:1042300083F31188BFF36F8FBFF34F8F3B6100BFD4
:10424000154B1B685433154A1360154B4FF0FF3262
:104250001A60144B01221A60134B00221A6001F0FD
:10426000ABF90FE07B69B3F1FF3F0BD14FF0500387
:1042700083F31188BFF36F8FBFF34F8FFB6000BFD5
:1042800000BFFDE700BF1837BD4680BD5C73000866
:10429000E14800082C0E0020340900201C000020FA
:1042A000280E0020140E00200C0E002080B400AF59
:1042B000044B1B680133034A136000BFBD4680BC3A
:1042C000704700BF300E002080B584B000AF0023DF
:1042D000FB600023BB60424B1B68002B0BD14FF0EF
:1042E000500383F31188BFF36F8FBFF34F8F3B6091
:1042F00000BF00BFFDE701F0D1F9394B1B68013B5E
:10430000374A1360364B1B68002B62D1354B1B6854
:10431000002B5ED02FE0344BDB68DB68FB60FB6872
:1043200018331846FEF7B0FEFB6804331846FEF754
:10433000ABFEFB68DA6A2D4B1B689A4203D9FB6817
:10434000DB6A2A4A1360FB68DA6A13469B0013444F
:104350009B00274A1A44FB68043319461046FEF7AF
:1043600038FEFB68DA6A234B1B68DB6A9A4202D389
:10437000214B01221A601C4B1B68002BCBD1FB6820
:10438000002B01D000F068FB1C4B1B687B607B6836
:10439000002B10D000F044F80346002B02D0164B3F
:1043A00001221A607B68013B7B607B68002BF1D1A6
:1043B000124B00221A60104B1B68002B09D00123FE
:1043C000BB600F4B4FF080521A60BFF34F8FBFF3AB
:1043D0006F8F01F093F9BB6818461037BD4680BD5A
:1043E000300E0020080E0020C80D0020100E002006
:1043F00038090020340900201C0E0020180E00206F
:1044000004ED00E080B483B000AF044B1B687B6018
:104410007B6818460C37BD4680BC70470C0E0020E8
:1044200080B586B000AF00237B61524B1B68002B28
:1044300040F08F80504B1B6801333B614E4A3B6913
:1044400013603B69002B21D14C4B1B681B68002B70
:104450000BD04FF0500383F31188BFF36F8FBFF37E
:104460004F8F3B6000BF00BFFDE7444B1B68FB6004
:10447000434B1B68414A1360414AFB681360414B40
:104480001B6801333F4A136000F0E6FA3E4B1B689D
:104490003A699A424ED3394B1B681B68002B01D1F5
:1044A000012300E00023002B04D0374B4FF0FF32F4
:1044B0001A603FE0314B1B68DB68DB68BB60BB68A0
:1044C0005B687B603A697B689A4203D22E4A7B68BC
:1044D00013602FE0BB6804331846FEF7D5FDBB68B8
:1044E0009B6A002B04D0BB6818331846FEF7CCFD3E
:1044F000BB68DA6A254B1B689A4203D9BB68DB6A42
:10450000224A1360BB68DA6A13469B0013449B007F
:104510001F4A1A44BB68043319461046FEF759FD7A
:10452000BB68DA6A1B4B1B68DB6A9A42B3D3012370
:104530007B61B0E7174B1B68DA6A154913469B008D
:1045400013449B000B441B68012B07D901237B619B
:1045500004E0114B1B6801330F4A13600F4B1B68BB
:10456000002B01D001237B617B6918461837BD46BB
:1045700080BD00BF300E00200C0E0020C00D0020BA
:10458000C40D0020200E0020280E0020100E002058
:104590003809002034090020180E00201C0E0020CD
:1045A00080B485B000AF2A4B1B68002B03D0294B89
:1045B00001221A6047E0274B00221A60264B1B6835
:1045C000FB6011E0FB68002B0BD14FF0500383F32D
:1045D0001188BFF36F8FBFF34F8F7B6000BF00BFA9
:1045E000FDE7FB68013BFB601C49FA6813469B0032
:1045F00013449B000B441B68002BE3D0FA6813465E
:104600009B0013449B00154A1344BB60BB685B6866
:104610005A68BB685A60BB685A68BB6808339A42DC
:1046200004D1BB685B685A68BB685A60BB685B684A
:10463000DB680B4A1360084AFB681360084B1B6871
:104640005433084A136000BF1437BD4680BC70471E
:10465000300E00201C0E0020100E00203809002013
:10466000340900201C00002080B584B000AF7860C1
:1046700039607B68002B0BD14FF0500383F3118816
:10468000BFF36F8FBFF34F8FFB6000BF00BFFDE72D
:10469000074B1B68183319467868FEF7BDFC0121EB
:1046A000386800F095FB00BF1037BD4680BD00BFE5
:1046B0003409002080B586B000AFF860B9607A6038
:1046C000FB68002B0BD14FF0500383F31188BFF32D
:1046D0006F8FBFF34F8F7B6100BF00BFFDE70A4BB9
:1046E0001B6818331946F868FEF773FC7B68002BCB
:1046F00002D04FF0FF33BB607968B86800F068FB08
:1047000000BF1837BD4680BD3409002080B586B093
:1047100000AF78607B68DB68DB683B613B69002B3E
:104720000BD14FF0500383F31188BFF36F8FBFF3AA
:104730004F8FFB6000BF00BFFDE73B691833184691
:10474000FEF7A2FC1D4B1B68002B1DD13B690433F7
:104750001846FEF799FC3B69DA6A194B1B689A42C6
:1047600003D93B69DB6A164A13603B69DA6A134670
:104770009B0013449B00134A1A443B6904331946B7
:104780001046FEF726FC05E03B69183319460E4833
:10479000FEF71FFC3B69DA6A0C4B1B68DB6A9A4226
:1047A00005D901237B610A4B01221A6001E0002335
:1047B0007B617B6918461837BD4680BD300E0020EE
:1047C000100E002038090020C80D002034090020F8
:1047D0001C0E002080B483B000AF7860064B1A68CE
:1047E0007B681A60054B1A687B685A6000BF0C37FB
:1047F000BD4680BC704700BF200E00200C0E00207C
:1048000080B588B000AF786039607B68002B0BD131
:104810004FF0500383F31188BFF36F8FBFF34F8FB7
:104820003B6100BF00BFFDE73B68002B0BD14FF0A1
:10483000500383F31188BFF36F8FBFF34F8FFB607B
:1048400000BF00BFFDE700F029FF1D4B1B68BB61E7
:104850007B685B68BA69D31A7B613B681B68B3F1FC
:10486000FF3F02D10023FB6123E07B681A68154BF0
:104870001B689A4207D07B685B68BA699A4202D388
:104880000123FB6115E03B681B687A699A420BD2F1
:104890003B681A687B69D21A3B681A607868FFF730
:1048A00099FF0023FB6104E03B6800221A600123AA
:1048B000FB6100F023FFFB6918462037BD4680BD31
:1048C0000C0E0020200E002080B400AF034B01220C
:1048D0001A6000BFBD4680BC704700BF1C0E0020A0
:1048E00080B582B000AF786000F052F8064B1B68CC
:1048F000012BF9D9054B4FF080521A60BFF34F8F4F
:10490000BFF36F8FF0E700BF3809002004ED00E02F
:1049100080B582B000AF00237B600CE07A6813465C
:104920009B0013449B00124A13441846FEF726FBD3
:104930007B6801337B607B68372BEFD90D48FEF72E
:104940001DFB0D48FEF71AFB0C48FEF717FB0C4841
:10495000FEF714FB0B48FEF711FB0B4B054A1A60E0
:104960000A4B054A1A6000BF0837BD4680BD00BF2C
:1049700038090020980D0020AC0D0020C80D002043
:10498000DC0D0020F40D0020C00D0020C40D00201F
:1049900080B582B000AF19E000F080FE104BDB68FC
:1049A000DB687B607B6804331846FEF76DFB0D4BBC
:1049B0001B68013B0B4A13600B4B1B68013B0A4A07
:1049C000136000F09BFE786800F010F8064B1B683F
:1049D000002BE1D100BF00BF0837BD4680BD00BF3E
:1049E000DC0D0020080E0020F00D002080B584B002
:1049F00000AF78607B685433184601F0ADFE7B68E9
:104A000093F8A530002B08D17B681B6B184601F08A
:104A10000FF8786801F00CF819E07B6893F8A5307E
:104A2000012B03D1786801F003F810E07B6893F85C
:104A3000A530022B0BD04FF0500383F31188BFF346
:104A40006F8FBFF34F8FFB6000BF00BFFDE700BF5C
:104A50001037BD4680BD000080B483B000AF0E4B60
:104A60001B681B68002B01D1012300E00023002BF1
:104A700004D00A4B4FF0FF321A6008E0064B1B6867
:104A8000DB68DB687B607B685B68044A136000BF9F
:104A90000C37BD4680BC7047C00D0020280E00209A
:104AA00080B483B000AF0B4B1B68002B02D10123F5
:104AB0007B6008E0084B1B68002B02D102237B605F
:104AC00001E000237B607B6818460C37BD4680BC44
:104AD000704700BF140E0020300E002080B584B057
:104AE00000AF78607B68BB600023FB607B68002BB5
:104AF00056D0BB68DA6A2D4B1B68DB6A9A4246D2F5
:104B0000BB689B69002B06DB284B1B68DB6AC3F183
:104B10003802BB689A61BB685969BB68DA6A134698
:104B20009B0013449B00224A1344994201D1012364
:104B300000E00023002B22D0BB6804331846FEF7A8
:104B4000A3FA1A4B1B68DA6ABB68DA62BB68DA6AD6
:104B5000184B1B689A4203D9BB68DB6A154A13607D
:104B6000BB68DA6A13469B0013449B00104A1A4440
:104B7000BB68043319461046FEF72BFA04E00B4BD2
:104B80001B68DA6ABB68DA620123FB6008E0BB6875
:104B9000DA6C064B1B68DB6A9A4201D20123FB6088
:104BA000FB6818461037BD4680BD00BF34090020A1
:104BB00038090020100E002080B586B000AF786064
:104BC0007B683B6100237B617B68002B58D02F4BB7
:104BD0001B683A699A420BD04FF0500383F3118857
:104BE000BFF36F8FBFF34F8FFB6000BF00BFFDE7C8
:104BF0003B691B6D002B0BD14FF0500383F31188E1
:104C0000BFF36F8FBFF34F8FBB6000BF00BFFDE7E7
:104C10003B691B6D5A1E3B691A653B69DA6A3B6941
:104C2000DB6C9A422CD03B691B6D002B28D13B6971
:104C300004331846FEF728FA3B69DA6C3B69DA62FE
:104C40003B69DB6AC3F138023B699A613B69DA6A06
:104C50000F4B1B689A4203D93B69DB6A0C4A13600D
:104C60003B69DA6A13469B0013449B00094A1A44C5
:104C70003B69043319461046FEF7ABF901237B610B
:104C80007B6918461837BD4680BD00BF3409002037
:104C9000100E00203809002080B588B000AF786081
:104CA00039607B68BB6101237B617B68002B71D01D
:104CB000BB691B6D002B0BD14FF0500383F31188A0
:104CC000BFF36F8FBFF34F8FFB6000BF00BFFDE7E7
:104CD000BB69DB6C3A689A4202D93B68FB6102E02F
:104CE000BB69DB6CFB61BB69DB6AFA699A4251D034
:104CF000BB691B6D7A699A424CD1284B1B68BA6913
:104D00009A420BD14FF0500383F31188BFF36F8F9A
:104D1000BFF34F8FBB6000BF00BFFDE7BB69DB6A1D
:104D20003B61BB69FA69DA62BB699B69002B04DBF2
:104D3000FB69C3F13802BB699A61BB6959693A6979
:104D400013469B0013449B00154A1344994201D11A
:104D5000012300E00023002B1CD0BB69043318465C
:104D6000FEF792F9BB69DA6A0E4B1B689A4203D9C7
:104D7000BB69DB6A0B4A1360BB69DA6A13469B00A6
:104D800013449B00064A1A44BB6904331946104673
:104D9000FEF71FF900BF2037BD4680BD3409002053
:104DA00038090020100E002080B400AF074B1B68AC
:104DB000002B04D0054B1B681A6D01321A65034B9A
:104DC0001B681846BD4680BC704700BF34090020F0
:104DD00080B584B000AF78603960214B1B68FB6000
:104DE000204B1B6804331846FEF74EF97B68B3F17D
:104DF000FF3F0AD13B68002B07D01A4B1B680433D6
:104E000019461948FEF7E5F826E0FA687B6813446E
:104E1000BB60144B1B68BA685A60BA68FB689A4258
:104E200009D2124B1A680F4B1B68043319461046FF
:104E3000FEF7F2F810E00E4B1A680A4B1B680433B9
:104E400019461046FEF7E8F80A4B1B68BA689A4202
:104E500002D2084ABB68136000BF1037BD4680BD50
:104E60000C0E002034090020F40D0020C40D002099
:104E7000C00D0020280E002080B58AB004AF0023AA
:104E80007B6100F0D9FA1D4B1B68002B21D0002359
:104E9000FB600023BB603A1D07F1080107F10C031A
:104EA0001846FEF751F87968BB68FA6802920193D8
:104EB0000223009300230A4611491248FEF79CFF83
:104EC0000346114A1360104B1B68002B01D00123CD
:104ED0007B617B69002B0BD14FF0500383F311886A
:104EE000BFF36F8FBFF34F8F3B6100BF00BFFDE784
:104EF0007B6918461837BD4680BD00BF640E002090
:104F0000647300082D500008680E002080B58AB038
:104F100000AFF860B9607A603B6000237B62FB6899
:104F2000002B0BD14FF0500383F31188BFF36F8F29
:104F3000BFF34F8F3B6200BF00BFFDE7194B1B68FB
:104F4000002B2AD0BB683B617B687B61FB68BB613F
:104F5000BB68052B18DCFFF7A3FD0346022B09D124
:104F6000104B186807F1100100233A6BFEF730FA76
:104F7000786212E00B4B186807F110010023002241
:104F8000FEF726FA786208E0064B186807F1100170
:104F900000233A68FEF71EFB78627B6A18462837C2
:104FA000BD4680BD640E002080B588B002AF786039
:104FB00039601D4B1B68DB68DB687B617B690433F0
:104FC0001846FEF761F87B69DB69012B23D17B6909
:104FD0009A697B68D1187B683A68786900F0CCF8E8
:104FE0000346002B17D00023009300237A6800218A
:104FF0007869FFF78BFF38613B69002B0BD14FF0CD
:10500000500383F31188BFF36F8FBFF34F8FFB60A3
:1050100000BF00BFFDE77B695B6A7869984700BF06
:105020001837BD4680BD00BF5C0E002080B584B03F
:1050300000AF786007F10803184600F059F8F860EF
:10504000BB681946F86800F005F800F0D7F800BF13
:10505000F0E7000080B584B000AF78603960FFF7FA
:1050600025F907F10803184600F066F8F860BB68F8
:10507000002B30D13B68002B0AD17A68FB689A423A
:1050800006D8FFF721F9F9687868FFF78DFF24E06B
:105090003B68002B08D0134B1B681B68002B0CBF10
:1050A00001230023DBB23B600F4B18687A68FB6872
:1050B000D31A3A681946FEF76BFEFFF705F9034667
:1050C000002B0AD1094B4FF080521A60BFF34F8F6B
:1050D000BFF36F8F01E0FFF7F7F800BF1037BD4651
:1050E00080BD00BF600E0020640E002004ED00E0D3
:1050F00080B485B000AF78600E4B1B681B68002B36
:105100000CBF01230023DBB21A467B681A607B6860
:105110001B68002B05D1074B1B68DB681B68FB6015
:1051200001E00023FB60FB6818461437BD4680BCD5
:10513000704700BF5C0E002080B584B000AF78607F
:10514000FFF760F9F8600B4B1B68FA689A4205D2CA
:1051500000F010F97B6801221A6002E07B680022EF
:105160001A60044AFB681360FB6818461037BD4696
:1051700080BD00BF6C0E002080B586B000AFF86027
:10518000B9607A603B6000237B61FB68BA685A6053
:10519000FB68FA681A61BA687B689A4212D87A6822
:1051A0003B68D21AFB689B699A4202D301237B6158
:1051B0001BE0104B1A68FB68043319461046FDF7D4
:1051C0002BFF12E07A683B689A4206D2BA683B68C5
:1051D0009A4202D301237B6107E0074B1A68FB6800
:1051E000043319461046FDF717FF7B691846183738
:1051F000BD4680BD600E00205C0E002080B58EB0E4
:1052000002AFA5E07B68002B19DA3B1D0433FB627B
:10521000FB6A002B0BD14FF0500383F31188BFF3CF
:105220006F8FBFF34F8FFB6100BF00BFFDE7FB6ACD
:105230001B68FA6A5068FA6A9268114698477B6858
:10524000002BC0F28580FB68BB62BB6A5B69002BE8
:1052500004D0BB6A04331846FDF716FF3B461846D8
:10526000FFF76AFF78627B68092B6CD801A252F8BD
:1052700023F000BF9D5200089D5200089D52000877
:1052800047530008FB520008355300089D520008A0
:105290009D52000847530008FB520008BA68BB6AD9
:1052A0009B69D118BB687A6AB86AFFF765FF034645
:1052B000002B4AD0BB6A5B6AB86A9847BB6ADB6955
:1052C000012B42D1BA68BB6A9B691A440023009340
:1052D00000230021B86AFFF719FE38623B6A002BF1
:1052E00033D14FF0500383F31188BFF36F8FBFF3B7
:1052F0004F8FBB6100BF00BFFDE7BA68BB6A9A6110
:10530000BB6A9B69002B0BD14FF0500383F31188CC
:10531000BFF36F8FBFF34F8F7B6100BF00BFFDE70F
:10532000BB6A9A697B6AD1187B6A7A6AB86AFFF7A6
:1053300023FF0DE0BB6A93F82C30002B07D1B86A2D
:1053400000F076FB03E000BF02E000BF00E000BF1A
:10535000074B1B68391D00221846FEF7D7F9034694
:10536000002B7FF44FAF00BF00BF3037BD4680BD7C
:10537000640E002080B588B002AF46E02C4B1B685D
:10538000DB681B683B612A4B1B68DB68DB68FB60E2
:10539000FB6804331846FDF777FEFB685B6AF86824
:1053A0009847FB68DB69012B2FD1FB689B693A6941
:1053B0001344BB60BA683B699A420ED9FB68BA686D
:1053C0005A60FB68FA681A61194B1A68FB68043363
:1053D00019461046FDF720FE17E000230093002336
:1053E0003A690021F868FFF791FD78607B68002B2F
:1053F0000BD14FF0500383F31188BFF36F8FBFF3CE
:105400004F8F3B6000BF00BFFDE7094B1B681B6867
:10541000002BB3D1064B1B687B61064B1B68044A0B
:105420001360044A7B69136000BF1837BD4680BD16
:105430005C0E0020600E002080B582B002AF00F04C
:105440002DF9154B1B68002B20D11448FDF796FD54
:105450001348FDF793FD134B104A1A60124B104A84
:105460001A6000230093114B114A10210A20FDF706
:105470009FFE0346084A1360074B1B68002B05D0AC
:10548000054B1B680B491846FEF75AFC00F036F92D
:1054900000BFBD4680BD00BF640E0020340E00205A
:1054A000480E00205C0E0020600E0020100F00202F
:1054B000700E00206C73000880B485B000AFF860F7
:1054C000B9607A60FB68043BFB60FB684FF0807258
:1054D0001A60FB68043BFB60BB6823F00102FB68B9
:1054E0001A60FB68043BFB60084AFB681A60FB68B3
:1054F000143BFB607A68FB681A60FB68203BFB602A
:10550000FB6818461437BD4680BC7047115500082B
:1055100080B485B000AF00237B60124B1B68B3F1F1
:10552000FF3F0BD04FF0500383F31188BFF36F8F11
:10553000BFF34F8FFB6000BF00BFFDE74FF050038C
:1055400083F31188BFF36F8FBFF34F8FBB6000BF32
:1055500000BF7B68002BFCD000BF00BF1437BD46E6
:1055600080BC70470C00002000000000000000001C
:10557000074B19680868B0E8F00F80F30988BFF39B
:105580006F8F4FF0000080F311884EF00D0E7047C2
:105590003409002000BF00BF06480068006880F39F
:1055A000088862B661B6BFF34F8FBFF36F8F00DF1D
:1055B00000BF00BF08ED00E080B584B000AF324B03
:1055C000FB60FB681B78DBB27B60FB68FF221A7014
:1055D000FB681B78DBB2FB70FB78DBB203F0500397
:1055E000DAB22A4B1A702A4B07221A6009E0284BBC
:1055F0001B68013B264A1360FB78DBB25B00DBB221
:10560000FB70FB78DBB203F08003802BEFD0204BE4
:105610001B68C3F10703042B0BD04FF0500383F337
:105620001188BFF36F8FBFF34F8FBB6000BF00BF08
:10563000FDE7174B1B681B02154A1360144B1B68D0
:1056400003F4E063124A13607B68DAB2FB681A70F5
:10565000104B1B680F4A43F4700313600D4B1B681B
:105660000C4A43F07043136000F0B8F80A4B002274
:105670001A60FFF791FFFEF793FFFFF749FF002342
:1056800018461037BD4680BD00E400E0600F0020E2
:10569000640F002020ED00E00C00002080B483B0F7
:1056A00000AF4FF0500383F31188BFF36F8FBFF348
:1056B0004F8F7B6000BF0F4B1B6801330D4A136097
:1056C0000C4B1B68012B10D10B4B1B68DBB2002B62
:1056D0000BD04FF0500383F31188BFF36F8FBFF3EC
:1056E0004F8F3B6000BF00BFFDE700BF0C37BD46DA
:1056F00080BC70470C00002004ED00E080B483B053
:1057000000AF124B1B68002B0BD14FF0500383F3FB
:105710001188BFF36F8FBFF34F8F7B6000BF00BF57
:10572000FDE70A4B1B68013B084A1360074B1B68E7
:10573000002B05D100233B603B6883F3118800BF39
:1057400000BF0C37BD4680BC704700BF0C00002076
:10575000EFF30980BFF36F8F0D4B1A6820E9F00F4C
:1057600010602DE908404FF0500080F31188FEF7DB
:1057700017FF4FF0000080F31188BDE8084019685A
:105780000868B0E8F00F80F30988BFF36F8F7047A7
:105790003409002000BF00BF80B582B000AF4FF0D9
:1057A000500383F31188BFF36F8FBFF34F8F7B607C
:1057B00000BFFEF735FE0346002B03D0064B4FF02B
:1057C00080521A6000233B603B6883F3118800BF5E
:1057D00000BF0837BD4680BD04ED00E080B400AFD7
:1057E0000A4B00221A600A4B00221A60094B1B6800
:1057F000094AA2FB03239B09084A013B1360034BA0
:1058000007221A6000BFBD4680BC704710E000E070
:1058100018E000E000000020D34D621014E000E02A
:1058200080B485B000AFEFF30583FB60FB680F2BFE
:1058300015D9174AFB6813441B78FB72154B1B786C
:10584000FA7A9A420BD24FF0500383F31188BFF3D8
:105850006F8FBFF34F8F7B6000BF00BFFDE70E4B24
:105860001B6803F4E0620D4B1B689A420BD94FF0A2
:10587000500383F31188BFF36F8FBFF34F8F3B60EB
:1058800000BF00BFFDE700BF1437BD4680BC7047B6
:10589000F0E300E0600F00200CED00E0640F00205A
:1058A00080B58AB000AF78600023FB61FEF7FEFC94
:1058B0005A4B1B68002B01D100F016F9584B1A689F
:1058C0007B681340002B40F090807B68002B1ED03B
:1058D00008227B6813447B607B6803F00703002B7E
:1058E00015D07B6823F0070308337B607B6803F0E7
:1058F0000703002B0BD04FF0500383F31188BFF345
:105900006F8FBFF34F8F7B6100BF00BFFDE77B68E8
:10591000002B6AD0434B1B687A689A4265D8424B89
:105920003B62414B1B687B6204E07B6A3B627B6AA3
:105930001B687B627B6A5B687A689A4203D97B6AE0
:105940001B68002BF1D1354B1B687A6A9A424CD008
:105950003B6A1B6808221344FB617B6A1A683B6A36
:105960001A607B6A5A687B68D21A08235B009A42E5
:1059700020D97A6A7B681344BB61BB6903F00703D3
:10598000002B0BD04FF0500383F31188BFF36F8FC0
:10599000BFF34F8F3B6100BF00BFFDE77B6A5A68D2
:1059A0007B68D21ABB695A607B6A7A685A60B869A8
:1059B00000F0FCF81B4B1A687B6A5B68D31A194A23
:1059C0001360184B1A68194B1B689A4203D2154B87
:1059D0001B68164A13607B6A5A68114B1B681A438E
:1059E0007B6A5A607B6A00221A60FEF76DFCFB69D5
:1059F00003F00703002B0BD04FF0500383F3118803
:105A0000BFF36F8FBFF34F8FFB6000BF00BFFDE799
:105A1000FB6918462837BD4680BD00BF701B0020BB
:105A20007C1B0020741B0020681B0020781B0020BA
:105A300080B586B000AF78607B687B617B68002BA7
:105A40004AD008235B427A6913447B617B693B61DE
:105A50003B695A68224B1B681340002B0BD14FF057
:105A6000500383F31188BFF36F8FBFF34F8FFB6039
:105A700000BF00BFFDE73B691B68002B0BD04FF058
:105A8000500383F31188BFF36F8FBFF34F8FBB6059
:105A900000BF00BFFDE73B695A68114B1B6813400C
:105AA000002B19D03B691B68002B15D13B695A6844
:105AB0000B4B1B68DB431A403B695A60FEF7F6FB51
:105AC0003B695A68074B1B681344064A13603869E0
:105AD00000F06CF8FEF7F8FB00BF1837BD4680BD3C
