:020000040800F2
:1000000000000120790C0008B5090008BD090008AE
:10001000C5090008CD090008D50900080000000046
:10002000000000000000000000000000D18D00086A
:10003000DD09000800000000B18F0008F98F0008FA
:10004000C10C0008C10C0008C10C0008C10C00085C
:10005000C10C0008C10C0008C10C0008C10C00084C
:10006000C10C0008C10C0008C10C0008C10C00083C
:10007000C10C0008C10C0008C10C0008C10C00082C
:10008000C10C0008C10C0008C10C0008C10C00081C
:10009000E9090008C10C0008C10C0008C10C0008E7
:1000A000C10C0008C10C0008C10C0008C10C0008FC
:1000B000FD090008C10C0008C10C0008C10C0008B3
:1000C000C10C0008C10C0008C10C0008C10C0008DC
:1000D000C10C0008C10C0008650A0008C10C00082A
:1000E000C10C0008C10C0008C10C0008C10C0008BC
:1000F000C10C0008C10C0008C10C0008C10C0008AC
:10010000C10C0008C10C0008C10C0008C10C00089B
:10011000C10C0008C10C0008C10C0008790A0008D5
:10012000C10C0008C10C0008C10C0008C10C00087B
:1001300000000000000000000000000000000000BF
:1001400000000000000000000000000000000000AF
:10015000000000000000000000000000000000009F
:10016000000000000000000000000000000000008F
:10017000000000000000000000000000000000007F
:10018000000000000000000000000000000000006F
:10019000000000000000000000000000000000005F
:1001A000000000000000000000000000000000004F
:1001B000000000000000000000000000000000003F
:1001C000000000000000000000000000000000002F
:1001D000000000000000000000000000000000001F
:0401E0005FF8E0F1F3
:1001F00010B5054C237833B9044B13B10448AFF361
:1002000000800123237010BDC00100200000000009
:100210004CB9000808B5034B1BB103490348AFF3C1
:10022000008008BD00000000C40100204CB9000897
:1002300080B500AF00F046FD012006F0E1FC03466A
:100240001D4A136000F058F800F052F900F0FCF875
:1002500000F024F900F0ACF809F030F9174802F08A
:100260001EFD01221649174803F078F906F046F9F9
:10027000154A0021154806F0A7F90346144A1360F1
:10028000144A0021144806F09FF90346134A1360EC
:10029000134A0021134806F097F90346124A1360E7
:1002A000124A0021124806F08FF90346114A1360E2
:1002B00006F056F900BFFDE7AC020020DC0100208B
:1002C000742500205C020020B4BB00080906000869
:1002D0009C020020D8BB000823060008A0020020D2
:1002E000FCBB000849060008A402002020BC00084E
:1002F00085060008A802002080B596B000AF07F17F
:1003000030032822002118460AF0AAFC07F11C033A
:1003100000221A605A609A60DA601A613B1D00225E
:100320001A605A609A60DA601A615A6101233B636D
:100330004FF480337B630023BB6301233B640223C0
:10034000FB644FF480333B654FF4E0137B6507F1AA
:100350003003184601F078FF0346002B01D000F06F
:10036000BDF90F23FB6102233B6200237B624FF444
:100370008063BB620023FB6207F11C030221184665
:1003800002F0E4F90346002B01D000F0A7F9102396
:100390007B600023BB613B1D184602F09FFB0346B8
:1003A000002B01D000F09AF900BF5837BD4680BD40
:1003B00080B586B000AF07F1080300221A605A60CA
:1003C0009A60DA603B4600221A605A601D4B4FF07B
:1003D00080421A601B4B47225A601A4B00229A60D7
:1003E000184B4FF4FA72DA60164B00221A61154B63
:1003F00000229A61134802F027FC0346002B01D02B
:1004000000F06CF94FF48053BB6007F10803194604
:100410000C4802F06FFD0346002B01D000F05EF99E
:1004200000233B6000237B603B461946054802F0F1
:1004300059FF0346002B01D000F050F900BF1837D8
:10044000BD4680BDDC01002080B500AF114B124AD3
:100450001A60104B4FF4E1325A600E4B00229A6042
:100460000C4B0022DA600B4B00221A61094B0C2264
:100470005A61084B00229A61064B0022DA61054856
:1004800002F086FF0346002B01D000F027F900BFE1
:1004900080BD00BF1C0200200038014080B500AFC5
:1004A000114B124A1A60104B4FF4E1325A600E4B56
:1004B00000229A600C4B0022DA600B4B00221A617A
:1004C000094B0C225A61084B00229A61064B00220C
:1004D000DA61054802F05CFF0346002B01D000F012
:1004E000FDF800BF80BD00BF5C020020004400405A
:1004F00080B588B000AF07F1100300221A605A607F
:100500009A60DA603C4B9B693B4A43F0400393613D
:10051000394B9B6903F04003FB60FB68364B9B69DA
:10052000354A43F004039361334B9B6903F00403A2
:10053000BB60BB68304B9B692F4A43F0200393613B
:100540002D4B9B6903F020037B607B682A4B9B69E2
:10055000294A43F008039361274B9B6903F0080382
:100560003B603B6800222021244800F070FF0022FD
:100570008021234800F06BFF00222021214800F059
:1005800066FF1C233B6100237B610023BB6107F1F5
:1005900010031946194800F0AFFD20233B610123E9
:1005A0007B610023BB610223FB6107F11003194645
:1005B000124800F0A1FD80233B6101237B610023F1
:1005C000BB610223FB6107F1100319460C4800F0E0
:1005D00093FD20233B6101237B610023BB61022348
:1005E000FB6107F110031946064800F085FD00BFC6
:1005F0002037BD4680BD00BF0010024000180140FA
:1006000000140140000C014080B582B000AF78605A
:1006100008F054FF09F0DEFB012006F07FF800BF70
:10062000F8E780B582B000AF786009F089FB4FF43D
:10063000FA7006F073F809F08FFB4FF4FA7006F0C9
:100640006DF800BFF1E7000080B582B000AF7860C0
:100650000A4B1A780A4B1B789A4208D0084B1A7832
:10066000064B1A70054B1B78184609F02FFE09F04F
:1006700009FD012006F052F8EAE700BFA42400209B
:10068000A524002080B582B000AF7860084B1B78AD
:10069000012B09D109F084FE4022002105480AF00F
:1006A000DFFA034B00221A70012006F037F8EDE75D
:1006B000582600201826002080B582B000AF786050
:1006C0007B681B68044A934201D100F011FB00BF14
:1006D0000837BD4680BD00BF0014004080B400AFA5
:1006E00072B600BF00BFFDE780B584B000AF184B05
:1006F0009B69174A43F001039361154B9B6903F013
:100700000103BB60BB68124BDB69114A43F08053A5
:10071000D3610F4BDB6903F080537B607B68002261
:100720000F216FF0010000F0B4FB0A4B5B68FB6027
:10073000FB6823F0E063FB60FB6843F00073FB6041
:10074000044AFB68536000BF1037BD4680BD00BF40
:10075000001002400000014080B584B000AF786016
:100760007B681B68B3F1804F13D10C4BDB690B4ADC
:1007700043F00103D361094BDB6903F00103FB6024
:10078000FB68002205211C2000F083FB1C2000F0E8
:100790009CFB00BF1037BD4680BD00BF001002406B
:1007A00080B58AB000AF786007F1180300221A60A4
:1007B0005A609A60DA607B681B683B4A934232D188
:1007C0003A4B9B69394A43F480439361374B9B69A9
:1007D00003F480437B617B69344B9B69334A43F06C
:1007E00004039361314B9B6903F004033B613B6954
:1007F0004FF40073BB610223FB6103237B6207F1AB
:10080000180319462A4800F077FC4FF48063BB6157
:100810000023FB6100233B6207F1180319462448BB
:1008200000F06AFC3CE07B681B68224A934237D1A7
:100830001E4BDB691D4A43F40033D3611B4BDB695C
:1008400003F40033FB60FB68184B9B69174A43F0C5
:1008500004039361154B9B6903F00403BB60BB6801
:100860000423BB610223FB6103237B6207F11803AE
:1008700019460F4800F040FC0823BB610023FB61D0
:1008800000233B6207F118031946094800F034FCC5
:1008900000220521262000F0FCFA262000F015FB9E
:1008A00000BF2837BD4680BD00380140001002401F
:1008B000000801400044004080B58EB000AF786071
:1008C0000023FB620023BB62002387F83330344BE4
:1008D000DB69334A43F02003D361314BDB6903F01A
:1008E0002003FB60FB6807F1100207F114031146B7
:1008F000184602F0A5F83B6AFB62FB6A002B03D1A5
:1009000002F076F8786304E002F072F803465B00C8
:100910007B637B6B234AA2FB03239B0C013BBB62E3
:10092000214B224A1A60204B40F2E732DA601E4A1D
:10093000BB6A53601C4B00221A611B4B00229A6059
:10094000194B00229A61184802F07EF9034687F895
:10095000333097F83330002B1BD1134802F09FF946
:10096000034687F8333097F83330002B11D1372006
:1009700000F0ABFA7B680F2B08D80022796837208B
:1009800000F087FA0A4A7B68136002E0012387F8C7
:10099000333097F8333018463837BD4680BD00BF36
:1009A0000010024083DE1B43B00200200014004010
:1009B0000400002080B400AF00BFFDE780B400AFAA
:1009C00000BFFDE780B400AF00BFFDE780B400AF1B
:1009D00000BFFDE780B400AF00BFFDE780B400AF0B
:1009E00000BFBD4680BC704780B500AF024800F034
:1009F00065FE00BF80BD00BFE021002080B500AFD4
:100A0000144B1B78012B0FD1134B1B8801339AB267
:100A1000114B1A80104B1B88B3F5FA6F07D90E4B98
:100A20004FF4FA621A8002E00A4B00221A70094B56
:100A30001B78012B09D1084B1B88282B05D9074BA4
:100A400001221A70044B00221A80054802F04AF96C
:100A500000BF80BDA9240020AA240020A7240020D4
:100A6000DC01002080B500AF024802F0CBFD00BFE2
:100A700080BD00BF5C02002080B500AF024802F0DC
:100A800031F900BF80BD00BFB002002080B400AFCC
:100A900001231846BD4680BC704780B582B000AFC8
:100AA000786039600AF080F9034616221A604FF028
:100AB000FF3318460837BD4680BD80B582B000AF11
:100AC00078604FF0FF317868FFF7E7FF00BFFDE780
:100AD00080B586B000AFF860B9607A6000237B61B2
:100AE0000AE0AFF300800146BB685A1CBA60CAB284
:100AF0001A707B6901337B617A697B689A42F0DB0B
:100B00007B6818461837BD4680BD80B586B000AFFB
:100B1000F860B9607A6000237B6109E0BB685A1C09
:100B2000BA601B78184609F0F9F87B6901337B61DC
:100B30007A697B689A42F1DB7B6818461837BD46B4
:100B400080BD80B483B000AF78604FF0FF331846AB
:100B50000C37BD4680BC704780B483B000AF78606E
:100B600039603B684FF400525A60002318460C3736
:100B7000BD4680BC704780B483B000AF786001236D
:100B800018460C37BD4680BC704780B485B000AFB6
:100B9000F860B9607A60002318461437BD4680BCFF
:100BA0007047000080B586B000AF7860144A154BDE
:100BB000D31A7B617B693B61134B1B68002B02D10D
:100BC000114B124A1A60104B1A687B6813443A6939
:100BD0009A4207D20AF0E8F803460C221A604FF056
:100BE000FF3309E0084B1B68FB60074B1A687B6802
:100BF0001344054A1360FB6818461837BD4680BD8C
:100C00000000012000040000F0020020A8270020BE
:100C100080B400AF154B1B68144A43F00103136006
:100C2000124B5A681149124B13404B600F4B1B6813
:100C30000E4A23F0847323F4803313600B4B1B683C
:100C40000A4A23F480231360084B5B68074A23F4A5
:100C5000FE035360054B4FF41F029A60054B4FF0A3
:100C600000629A6000BFBD4680BC70470010024021
:100C70000000FFF800ED00E0002103E00B4B5B58A3
:100C8000435004310A480B4B42189A42F6D30A4AA1
:100C900002E0002342F8043B084B9A42F9D3FFF7E5
:100CA000B7FF0AF087F8FFF7C3FA704744BD0008A2
:100CB00000000020C0010020C0010020A827002063
:100CC000FEE7000080B500AF084B1B68074A43F001
:100CD00010031360032000F0D1F80F20FFF7ECFDA4
:100CE000FFF702FD0023184680BD00BF0020024030
:100CF00080B400AF054B1B781A46054B1B681344A4
:100D0000034A136000BFBD4680BC70470800002046
:100D1000F402002080B400AF024B1B681846BD46A9
:100D200080BC7047F402002080B485B000AF7860CA
:100D30007B6803F00703FB600C4BDB68BB60BA68A1
:100D40004FF6FF031340BB60FB681A02BB681343F6
:100D500043F0BF6343F40033BB60044ABB68D36015
:100D600000BF1437BD4680BC704700BF00ED00E0F7
:100D700080B400AF044BDB681B0A03F0070318467E
:100D8000BD4680BC704700BF00ED00E080B483B07A
:100D900000AF0346FB7197F90730002B0BDBFB79A3
:100DA00003F01F02064997F907305B09012000FA9A
:100DB00002F241F8232000BF0C37BD4680BC7047CB
:100DC00000E100E080B483B000AF03463960FB71FE
:100DD00097F90730002B0ADB3B68DAB20C4997F928
:100DE00007301201D2B20B4483F800230AE03B68BB
:100DF000DAB20849FB7903F00F03043B1201D2B2C7
:100E00000B441A7600BF0C37BD4680BC704700BF4C
:100E100000E100E000ED00E080B489B000AFF860D0
:100E2000B9607A60FB6803F00703FB61FB69C3F1FB
:100E30000703042B28BF0423BB61FB690433062B83
:100E400002D9FB69033B00E000237B614FF0FF32D6
:100E5000BB6902FA03F3DA43BB681A407B699A4024
:100E60004FF0FF317B6901FA03F3D9437B680B40F4
:100E7000134318462437BD4680BC704780B582B006
:100E800000AF78607868FFF74FFF00BF0837BD46B6
:100E900080BD80B586B000AF0346B9607A60FB7351
:100EA00000237B61FFF764FF78617A68B96878692D
:100EB000FFF7B2FF024697F90F3011461846FFF7C9
:100EC00081FF00BF1837BD4680BD80B582B000AF3E
:100ED0000346FB7197F907301846FFF757FF00BF2D
:100EE0000837BD4680BD000080B584B000AF786093
:100EF0000023FB737B6893F82130022B05D07B68BD
:100F000004229A630123FB73D6E07B681B681A688E
:100F10007B681B6822F00E021A607B681B681A68E7
:100F20007B681B6822F001021A607B681B681A4606
:100F3000644B9A4258D97B681B68634A93424FD0EE
:100F40007B681B68614A934248D07B681B68604A93
:100F5000934240D07B681B685E4A934238D07B68DE
:100F60001B685D4A934230D07B681B685B4A9342A2
:100F700028D07B681B68534A934220D07B681B684B
:100F8000574A934219D07B681B68564A934212D045
:100F90007B681B68544A93420AD07B681B68534A9B
:100FA000934202D14FF480531BE04FF4803318E09A
:100FB0004FF4807315E0102313E0012311E04FF08C
:100FC00080730EE04FF480130BE04FF4803308E0A1
:100FD0004FF4805305E04FF4807302E0102300E0EB
:100FE0000123434A536057E07B681B68364A9342AB
:100FF0004FD07B681B68354A934248D07B681B689A
:10100000334A934240D07B681B68324A934238D0BF
:101010007B681B68304A934230D07B681B682F4A3C
:10102000934228D07B681B68264A934220D07B6875
:101030001B682B4A934219D07B681B68294A93424C
:1010400012D07B681B68284A93420AD07B681B68D1
:10105000264A934202D14FF480531BE04FF4803371
:1010600018E04FF4807315E0102313E0012311E022
:101070004FF080730EE04FF480130BE04FF4803399
:1010800008E04FF4805305E04FF4807302E0102332
:1010900000E00123174A53607B68012283F8212076
:1010A0007B68002283F820207B685B6B002B03D0D9
:1010B0007B685B6B78689847FB7B18461037BD46AA
:1010C00080BD00BF80000240080002401C000240BA
:1010D0003000024044000240580002406C000240D0
:1010E000080402401C040240300402404404024050
:1010F000000402400000024080B48BB000AF786072
:10110000396000237B6200233B6279E101227B6A24
:1011100002FA03F3FB613B681B68FA691340BB6189
:10112000BA69FB699A4240F068813B685B68964AFD
:1011300093425ED0944A934275D8944A934258D0D1
:10114000924A93426FD8924A934252D0904A934225
:1011500069D8904A93424CD08E4A934263D88E4AC3
:10116000934246D08C4A93425DD8122B2AD8122B38
:1011700059D801A252F823F0F3110008CD1100084C
:10118000DF110008211200082712000827120008AA
:10119000271200082712000827120008271200084B
:1011A000271200082712000827120008271200083B
:1011B000271200082712000827120008D51100087E
:1011C000E9110008754A934213D02CE03B68DB68B4
:1011D0003B6229E03B68DB6804333B6224E03B6808
:1011E000DB6808333B621FE03B68DB680C333B6223
:1011F0001AE03B689B68002B02D104233B6213E09A
:101200003B689B68012B05D108233B627B68FA6928
:101210001A6109E008233B627B68FA695A6103E0BE
:1012200000233B6200E000BFBB69FF2B01D87B6855
:1012300001E07B6804337B61BB69FF2B02D87B6ACA
:101240009B0002E07B6A083B9B003B617B691A685C
:101250000F213B6901FA03F3DB431A40396A3B690A
:1012600001FA03F31A437B691A603B685B6803F079
:101270008053002B00F0C180494B9B69484A43F0E2
:1012800001039361464B9B6903F00103BB60BB689C
:10129000444A7B6A9B08023352F82330FB607B6A26
:1012A00003F003039B000F2202FA03F3DB43FA6807
:1012B0001340FB607B683C4A93421FD07B683B4AEB
:1012C000934219D07B683A4A934213D07B68394ADB
:1012D00093420DD07B68384A934207D07B68374AE7
:1012E000934201D105230AE0062308E0042306E027
:1012F000032304E0022302E0012300E000237A6AD2
:1013000002F0030292009340FA681343FB60254900
:101310007B6A9B080233FA6841F823203B685B68CC
:1013200003F48033002B06D0254B1A682449BB698F
:1013300013430B6006E0224B1A68BB69DB4320496C
:1013400013400B603B685B6803F40033002B06D04E
:101350001B4B5A681A49BB6913434B6006E0184B94
:101360005A68BB69DB43164913404B603B685B68B6
:1013700003F48013002B25D0114B9A681049BB69E8
:1013800013438B6025E000BF0000321000003110D5
:1013900000002210000021100000121000001110A7
:1013A000001002400000014000080140000C014014
:1013B000001001400014014000180140001C0140D1
:1013C00000040140154B9A68BB69DB431349134085
:1013D0008B603B685B6803F40013002B06D00F4B57
:1013E000DA680E49BB691343CB6006E00B4BDA6841
:1013F000BB69DB4309491340CB607B6A01337B62E5
:101400003B681A687B6A22FA03F3002B7FF47EAEF6
:1014100000BF00BF2C37BD4680BC704700040140B0
:1014200080B485B000AF78600B467B807B689A689B
:101430007B881340002B02D00123FB7301E00023C3
:10144000FB73FB7B18461437BD4680BC704780B4E5
:1014500083B000AF78600B467B8013467B707B784F
:10146000002B03D07A887B681A6103E07B881A041A
:101470007B681A6100BF0C37BD4680BC704780B4E2
:1014800083B000AF78600B467B807B68DA687B882E
:101490001340002B03D07A887B685A6102E07A8877
:1014A0007B681A6100BF0C37BD4680BC7047F0B541
:1014B0008BB006AF78607B68002B01D10123D3E0AD
:1014C0007B6893F82932DBB2002B06D17B680022BF
:1014D00083F82822786808F0A1F97B68032283F852
:1014E00029227B681B68184602F003FC7B681B6896
:1014F0003B607E686D4606F110040FCC0FC5236873
:101500002B60331D0ECB386802F0CCFB0346002B5A
:1015100005D07B68022283F829220123A4E07B689E
:101520001B680021184602F000FC0023FB7335E025
:10153000FB7B7A685B011344293301221A70FB7B21
:101540007A685B0113442833FA7B1A70FB7BFA7BC1
:1015500091B27A685B01134436330A461A80FB7BEA
:101560007A685B0113442B3300221A70FB7B7A6884
:101570005B011344383300221A60FB7B7A685B01FD
:1015800013443C3300221A60FB7B7A6802335B0110
:10159000134400221A60FB7B0133FB73FA7B7B68E8
:1015A0005B689A42C4D30023FB7331E0FB7B7A680B
:1015B0005B01134403F2291300221A70FB7B7A6843
:1015C0005B01134403F59473FA7B1A70FB7B7A6812
:1015D0005B01134403F22B1300221A70FB7B7A6821
:1015E0005B01134403F59C7300221A60FB7B7A684D
:1015F0005B01134403F59E7300221A60FB7B7A683B
:101600000A335B01134400221A60FB7B0133FB7336
:10161000FA7B7B685B689A42C8D37B681B683B6037
:101620007E686D4606F110040FCC0FC523682B6051
:10163000331D0ECB386802F084FB0346002B05D027
:101640007B68022283F8292201230DE07B680022B7
:1016500083F824207B68012283F829227B681B6899
:10166000184603F0C0FB002318461437BD46F0BDF2
:1016700080B582B000AF78607B6893F82832012B88
:1016800001D1022316E07B68012283F82822012180
:10169000786808F00CFB7B681B68184603F099FB20
:1016A0007B681B68184602F00DFB7B68002283F8FC
:1016B0002822002318460837BD4680BD80B582B079
:1016C00000AF78607B681B68184603F096FB034602
:1016D00003F40043B3F5004F02D1786800F0DEFA5E
:1016E0007B681B68184603F088FB034603F480639D
:1016F000B3F5806F12D17B681B68B3F844309AB29F
:101700007B681B6822F4806292B2A3F84420786858
:1017100008F0F9F80021786800F0DEF87B681B68B3
:10172000184603F06AFB034603F48043B3F5804F89
:101730000BD17B681B68B3F844309AB27B681B6896
:1017400022F4804292B2A3F844207B681B681846BA
:1017500003F053FB034603F40053B3F5005F0BD1D2
:101760007B681B68B3F844309AB27B681B6822F42C
:10177000005292B2A3F844207B681B68184603F01D
:101780003CFB034603F48053B3F5805F26D17B68AE
:101790001B68B3F840309AB27B681B6822F00402E1
:1017A00092B2A3F840207B681B68B3F840309AB22D
:1017B0007B681B6822F0080292B2A3F84020786888
:1017C00008F0DAF87B681B68B3F844309AB27B689B
:1017D0001B6822F4805292B2A3F844207B681B68F5
:1017E000184603F00AFB034603F40063B3F5006FE9
:1017F0003DD17B681B68B3F840309AB27B681B68A8
:1018000042F0080292B2A3F840207B681B68B3F84C
:1018100044309AB27B681B6822F4006292B2A3F84B
:1018200044207B681B68B3F840309AB27B681B6821
:1018300042F0040292B2A3F840207B681B6818466D
:1018400003F0DBFA034603F48053B3F5805F0BD15A
:101850007B681B68B3F844309AB27B681B6822F43B
:10186000805292B2A3F84420786808F06BF87B6845
:101870001B68184603F0C1FA034603F40073B3F57E
:10188000007F0ED17B681B68B3F844309AB27B6846
:101890001B6822F4007292B2A3F84420786808F022
:1018A00024F87B681B68184603F0A7FA034603F484
:1018B0008073B3F5807F0BD17B681B68B3F844302D
:1018C0009AB27B681B6822F4807292B2A3F844201B
:1018D00000BF0837BD4680BD80B582B000AF7860DC
:1018E0000B46FB707B6893F82832012B01D1022351
:1018F00013E07B68012283F828227B68FA7883F85A
:1019000024207B681B68FA781146184603F04EFACB
:101910007B68002283F82822002318460837BD463A
:1019200080BD80B584B000AF7860084611461A4685
:101930000346FB700B463B801346BB700023FB72D3
:1019400097F90330002B0BDAFB7803F007035B01F8
:1019500028337A681344FB60FB6801225A700BE05D
:10196000FB7803F007035B0103F594737A68134473
:10197000FB60FB6800225A70FB7803F00703DAB2C1
:10198000FB681A703A88FB681A61FB68BA78DA70EB
:10199000FB685B78002B04D0FB681B781A46FB6859
:1019A000DA81BB78022B02D1FB6800221A717B68B6
:1019B00093F82832012B01D102230EE07B6801222B
:1019C00083F828227B681B68F968184602F0DEF964
:1019D0007B68002283F82822FB7A18461037BD4620
:1019E00080BD80B584B000AF78600B46FB7097F97E
:1019F0000330002B0BDAFB7803F007035B0128337D
:101A00007A681344FB60FB6801225A700BE0FB7894
:101A100003F007035B0103F594737A681344FB60DA
:101A2000FB6800225A70FB7803F00703DAB2FB6808
:101A30001A707B6893F82832012B01D102230EE043
:101A40007B68012283F828227B681B68F9681846A6
:101A500002F088FC7B68002283F8282200231846C5
:101A60001037BD4680BD80B586B000AFF8607A60A3
:101A70003B600B46FB72FB7A03F007035B0103F547
:101A80009473FA6813447B617B697A685A617B6955
:101A90003A689A617B690022DA617B6900225A7098
:101AA000FB7A03F00703DAB27B691A70FB7A03F062
:101AB0000703002B06D1FB681B687969184602F002
:101AC000E7FD05E0FB681B687969184602F0E0FD58
:101AD000002318461837BD4680BD80B586B000AFDC
:101AE000F8607A603B600B46FB72FB7A03F00703F9
:101AF0005B012833FA6813447B617B697A685A6119
:101B00007B693A689A617B690022DA617B6901220C
:101B10005A70FB7A03F00703DAB27B691A70FB7A1A
:101B200003F00703002B06D1FB681B687969184690
:101B300002F0AEFD05E0FB681B687969184602F00B
:101B4000A7FD002318461837BD4680BD80B584B078
:101B500000AF78600B46FB70FB7803F007027B68F0
:101B60005B689A4201D9012346E097F90330002BC4
:101B70000BDAFB7803F007035B0128337A68134420
:101B8000FB60FB6801225A7009E0FB785B0103F5FA
:101B900094737A681344FB60FB6800225A70FB68F8
:101BA00001229A70FB7803F00703DAB2FB681A701F
:101BB0007B6893F82832012B01D102231CE07B685B
:101BC000012283F828227B681B68F968184603F015
:101BD00017F8FB7803F00703002B08D17B681A681D
:101BE0007B6803F50C731946104603F015F97B6802
:101BF000002283F82822002318461037BD4680BDF6
:101C000080B584B000AF78600B46FB70FB7803F0C2
:101C10000F027B685B689A4201D901233AE097F989
:101C20000330002B0BDAFB7803F007035B0128334A
:101C30007A681344FB60FB6801225A700BE0FB7862
:101C400003F007035B0103F594737A681344FB60A8
:101C5000FB6800225A70FB6800229A70FB7803F040
:101C60000703DAB2FB681A707B6893F82832012BFD
:101C700001D102230EE07B68012283F828227B68D1
:101C80001B68F968184602F0FDFF7B68002283F8A4
:101C90002822002318461037BD4680BD90B589B074
:101CA00000AF786085E27B681B68B3F84430FB8244
:101CB000FB8ADBB203F00F037B757B7D002B40F0CA
:101CC0004181FB8A03F01003002B50D17B681B6815
:101CD0001B889BB223F4E14323F070039CB27B6822
:101CE0001A686FEA44436FEA53439BB213807B68E0
:101CF0002833FB607B681B68B3F850309BB21A46F0
:101D0000FB681B78DB00134402335B007A681268BF
:101D1000134403F580631B88C3F30902FB68DA618F
:101D2000FB685A69FB68DB691A44FB685A61002149
:101D3000786807F0C3FD7B6893F82430DBB2002B92
:101D400000F03782FB689B69002B40F032827B6891
:101D500093F82430DBB263F07F03DAB27B681B6850
:101D6000A3F84C207B68002283F8242021E27B68C2
:101D700003F59473FB607B681B681B887B827B8AFE
:101D800003F40063002B33D07B681B68B3F850303A
:101D90009BB21A46FB681B78DB00134406335B00DA
:101DA0007A681268134403F580631B88C3F3090241
:101DB000FB68DA617B6818687B6803F50C71FB6867
:101DC000DA88FB68DB699BB203F075F87B681B68F7
:101DD0001B889AB240F68F7313409CB27B681B68D5
:101DE00044F0800292B21A80786807F03DFDE0E18D
:101DF000B7F91230002B80F2DC817B681B681B88EE
:101E00009AB240F68F7313409CB27B681B6844F013
:101E1000800292B21A807B681B68B3F850309BB284
:101E20001A46FB681B78DB00134406335B007A68B4
:101E30001268134403F580631B88C3F30902FB682F
:101E4000DA61FB68DB69002B19D0FB685B69002B4A
:101E500015D07B681868FB685969FB68DA88FB68ED
:101E6000DB699BB203F027F8FB685A69FB68DB6902
:101E70001A44FB685A610021786807F007FD7B6807
:101E80001B681C467B681B68B3F850309BB21C442F
:101E900004F20C431C46FB681B69002B0ED12388FF
:101EA0009BB223F4F8439BB2238023889BB26FEA52
:101EB00043436FEA53439BB223802DE0FB681B69C9
:101EC0003E2B12D8FB681B695B08BB61FB681B6972
:101ED00003F00103002B02D0BB690133BB61BB6976
:101EE0009BB29B029BB2238016E0FB681B695B09D7
:101EF000BB61FB681B6903F01F03002B02D1BB69A8
:101F0000013BBB61BB699BB29B029BB26FEA43433F
:101F10006FEA53439BB223807B681B681B889BB28C
:101F200023F4804323F070039CB284F480539CB26A
:101F300084F400539CB27B681A68974B23439BB28E
:101F4000138036E17B681B681A467B7D9B00134437
:101F50001B887B82B7F91230002B80F2D1807B681E
:101F60001B681A467B7D9B0013441B889AB240F67F
:101F70008F7313409CB27B681B681A467B7D9B0065
:101F8000134444F0800292B21A807B7D5B0103F51A
:101F900094737A681344FB60FB681B7B002B21D190
:101FA0007B681B68B3F850309BB21A46FB681B78FD
:101FB000DB00134406335B007A681268134403F5B0
:101FC00080631B88C3F30903FB83FB8B002B72D058
:101FD0007B681868FB685969FB68DA88FB8B02F03C
:101FE0006AFF68E07B681B681A46FB681B789B00E9
:101FF00013441B889BB203F48043002B21D07B68E1
:102000001B68B3F850309BB21A46FB681B78DB00A4
:10201000134402335B007A681268134403F580634B
:102020001B88C3F30903FB83FB8B002B2AD07B683F
:102030001868FB685969FB681A89FB8B02F03BFF43
:1020400020E07B681B68B3F850309BB21A46FB68EF
:102050001B78DB00134406335B007A681268134474
:1020600003F580631B88C3F30903FB83FB8B002B01
:1020700008D07B681868FB685969FB685A89FB8B34
:1020800002F019FF7B681B681A46FB681B789B00EF
:1020900013441B889BB223F4E04323F070039CB2EB
:1020A0007B681B681A46FB681B789B001A443B4BF5
:1020B00023439BB21380FB68DA69FB8B1A44FB68ED
:1020C000DA61FB685A69FB8B1A44FB685A61FB684A
:1020D0009B69002B04D0FA8BFB681B699A4206D2DD
:1020E000FB681B781946786807F0D0FB08E0FB68AE
:1020F0001978FB685A69FB689B697868FFF7B3FC3D
:102100007B8A03F08003002B53D07B7D5B01283357
:102110007A681344FB607B681B681A467B7D9B00D2
:1021200013441B889BB223F4E14323F070039CB259
:102130007B681B681A467B7D9B001A446FEA444308
:102140006FEA53439BB213807B681B68B3F850302F
:102150009BB21A46FB681B78DB00134402335B001A
:102160007A681268134403F580631B88C3F309027D
:10217000FB68DA61FB685A69FB68DB691A44FB6833
:102180005A61FB689B69002B0AD1FB681B781946D2
:10219000786807F093FB0CE08080FFFFC080FFFFB2
:1021A000FB681978FB685A69FB689B697868FFF7D8
:1021B00094FC7B681B68B3F844309BB21BB2002BC5
:1021C000FFF671AD002318462437BD4690BD00BF11
:1021D00080B487B000AFF8607B600B467B8113460C
:1021E0003B817B8903F080039BB2002B08D07B8965
:1021F00003F007035B012833FA6813447B6106E0B0
:102200007B895B0103F59473FA6813447B613B8916
:10221000002B07D17B6900221A737B689AB27B6915
:10222000DA800BE07B6901221A737B689AB27B69C2
:102230001A817B681B0C9AB27B695A81002318466D
:102240001C37BD4680BC704780B586B000AF786053
:102250007B68002B01D1012372E27B681B6803F0CD
:102260000103002B00F08780924B5B6803F00C03A6
:10227000042B0CD08F4B5B6803F00C03082B12D19E
:102280008C4B5B6803F48033B3F5803F0BD1894BF3
:102290001B6803F40033002B6CD07B685B68002B59
:1022A00068D101234CE27B685B68B3F5803F06D1BF
:1022B000804B1B687F4A43F4803313602EE07B68B9
:1022C0005B68002B0CD17B4B1B687A4A23F480336C
:1022D0001360784B1B68774A23F4802313601DE05A
:1022E0007B685B68B3F5A02F0CD1724B1B68714AF9
:1022F00043F4802313606F4B1B686E4A43F48033B2
:1023000013600BE06B4B1B686A4A23F48033136045
:10231000684B1B68674A23F4802313607B685B6803
:10232000002B13D0FEF7F6FC386108E0FEF7F2FC54
:1023300002463B69D31A642B01D9032300E25D4BAB
:102340001B6803F40033002BF0D014E0FEF7E2FC2E
:10235000386108E0FEF7DEFC02463B69D31A642BC5
:1023600001D90323ECE1534B1B6803F40033002B2A
:10237000F0D100E000BF7B681B6803F00203002B74
:1023800063D04C4B5B6803F00C03002B0BD0494B24
:102390005B6803F00C03082B1CD1464B5B6803F40D
:1023A0008033002B16D1434B1B6803F00203002B34
:1023B00005D07B681B69012B01D00123C0E13D4B97
:1023C0001B6823F0F8027B685B69DB003949134323
:1023D0000B603AE07B681B69002B20D0364B012252
:1023E0001A60FEF797FC386108E0FEF793FC02469E
:1023F0003B69D31A022B01D90323A1E12D4B1B68A2
:1024000003F00203002BF0D02A4B1B6823F0F802E4
:102410007B685B69DB00274913430B6015E0264BA3
:1024200000221A60FEF776FC386108E0FEF772FCC5
:1024300002463B69D31A022B01D9032380E11D4BCD
:102440001B6803F00203002BF0D17B681B6803F0CC
:102450000803002B3AD07B689B69002B19D0174BDF
:1024600001221A60FEF756FC386108E0FEF752FCC4
:1024700002463B69D31A022B01D9032360E10D4BBD
:102480005B6A03F00203002BF0D0012000F008FB90
:102490001CE00A4B00221A60FEF73CFC38610FE09A
:1024A000FEF738FC02463B69D31A022B08D90323F6
:1024B00046E100BF00100240000042428004424258
:1024C000924B5B6A03F00203002BE9D17B681B6827
:1024D00003F00403002B00F0A6800023FB758B4B58
:1024E000DB6903F08053002B0DD1884BDB69874AF1
:1024F00043F08053D361854BDB6903F08053BB60AD
:10250000BB680123FB75824B1B6803F48073002BAF
:1025100018D17F4B1B687E4A43F480731360FEF72B
:10252000F9FB386108E0FEF7F5FB02463B69D31A78
:10253000642B01D9032303E1754B1B6803F48073FB
:10254000002BF0D07B68DB68012B06D16F4B1B6A38
:102550006E4A43F0010313622DE07B68DB68002BB9
:102560000CD16A4B1B6A694A23F001031362674B63
:102570001B6A664A23F0040313621CE07B68DB6875
:10258000052B0CD1614B1B6A604A43F004031362B4
:102590005E4B1B6A5D4A43F0010313620BE05B4B29
:1025A0001B6A5A4A23F001031362584B1B6A574AAD
:1025B00023F0040313627B68DB68002B15D0FEF761
:1025C000A9FB38610AE0FEF7A5FB02463B69D31A76
:1025D00041F28832934201D90323B1E04B4B1B6A8D
:1025E00003F00203002BEED014E0FEF793FB3861FA
:1025F0000AE0FEF78FFB02463B69D31A41F28832AC
:10260000934201D903239BE0404B1B6A03F0020372
:10261000002BEED1FB7D012B05D13C4BDB693B4A06
:1026200023F08053D3617B68DB69002B00F0878047
:10263000364B5B6803F00C03082B61D07B68DB69C9
:10264000022B46D1334B00221A60FEF763FB386140
:1026500008E0FEF75FFB02463B69D31A022B01D963
:1026600003236DE0294B1B6803F00073002BF0D1AE
:102670007B681B6AB3F5803F08D1244B5B6823F469
:1026800000327B689B68214913434B601F4B5B689A
:1026900023F474127B68196A7B685B6A0B431B49DD
:1026A00013434B601B4B01221A60FEF733FB38616A
:1026B00008E0FEF72FFB02463B69D31A022B01D933
:1026C00003233DE0114B1B6803F00073002BF0D097
:1026D00035E0104B00221A60FEF71CFB386108E061
:1026E000FEF718FB02463B69D31A022B01D90323DC
:1026F00026E0064B1B6803F00073002BF0D11EE0B0
:102700007B68DB69012B07D1012319E0001002402F
:1027100000700040600042420B4B5B68FB60FB684E
:1027200003F480327B681B6A9A4206D1FB6803F48B
:1027300070127B685B6A9A4201D0012300E000239B
:1027400018461837BD4680BD0010024080B584B0E1
:1027500000AF786039607B68002B01D10123D0E0A5
:102760006A4B1B6803F007033A689A4210D9674B1B
:102770001B6823F0070265493B6813430B60634BFA
:102780001B6803F007033A689A4201D00123B8E0BE
:102790007B681B6803F00203002B20D07B681B685A
:1027A00003F00403002B05D0594B5B68584A43F4EF
:1027B000E06353607B681B6803F00803002B05D0BF
:1027C000534B5B68524A43F460535360504B5B6811
:1027D00023F0F0027B689B684D4913434B607B6894
:1027E0001B6803F00103002B40D07B685B68012B62
:1027F00007D1474B1B6803F40033002B15D101238D
:102800007FE07B685B68022B07D1414B1B6803F0BC
:102810000073002B09D1012373E03D4B1B6803F0CB
:102820000203002B01D101236BE0394B5B6823F0DD
:1028300003027B685B68364913434B60FEF76AFA14
:10284000F8600AE0FEF766FA0246FB68D31A41F226
:102850008832934201D9032353E02D4B5B6803F088
:102860000C027B685B689B009A42EBD1274B1B688C
:1028700003F007033A689A4210D2244B1B6823F0F6
:10288000070222493B6813430B60204B1B6803F08F
:1028900007033A689A4201D0012332E07B681B6843
:1028A00003F00403002B08D0194B5B6823F4E062AB
:1028B0007B68DB68164913434B607B681B6803F039
:1028C0000803002B09D0124B5B6823F460527B682D
:1028D0001B69DB000E4913434B6000F021F80246F0
:1028E0000B4B5B681B0903F00F030A49CB5C22FA10
:1028F00003F3094A1360094B1B681846FDF7DCFF18
:10290000002318461037BD4680BD00BF002002409E
:102910000010024044BC0008000000200400002019
:1029200090B48AB000AF294B3C1D0FCB84E80F0058
:1029300040F201233B800023FB610023BB610023A5
:102940007B6200237B6100233B62214B5B68FB6160
:10295000FB6903F00C03042B02D0082B03D02BE0FF
:102960001C4B3B622BE0FB699B0C03F00F032833ED
:102970003B4413F8243C7B61FB6903F48033002B58
:1029800012D0134B5B685B0C03F0010328333B440C
:1029900013F8283CBB617B690E4A03FB02F2BB695A
:1029A000B2FBF3F37B6204E07B690B4A02FB03F3A7
:1029B0007B627B6A3B6202E0064B3B6200BF3B6A84
:1029C00018462837BD4690BC704700BF98B900082C
:1029D0000010024000127A0000093D0080B400AFF0
:1029E000024B1B681846BD4680BC704700000020A3
:1029F00080B500AFFFF7F2FF0246054B5B681B0A8C
:102A000003F007030349CB5C22FA03F3184680BDA9
:102A10000010024054BC000880B500AFFFF7DEFF95
:102A20000246054B5B68DB0A03F007030349CB5CF6
:102A300022FA03F3184680BD0010024054BC00087F
:102A400080B483B000AF786039607B680F221A6071
:102A5000114B5B6803F003027B685A600E4B5B68A6
:102A600003F0F0027B689A600B4B5B6803F4E06252
:102A70007B68DA60084B5B68DB0803F4E0627B6824
:102A80001A61064B1B6803F007023B681A6000BF1F
:102A90000C37BD4680BC7047001002400020024049
:102AA00080B485B000AF78600A4B1B680A4AA2FB6D
:102AB00003235B0A7A6802FB03F3FB6000BFFB6839
:102AC0005A1EFA60002BF9D100BF00BF1437BD4673
:102AD00080BC704700000020D34D621080B586B0E6
:102AE00000AF786000233B610023FB607B681B68BC
:102AF00003F00103002B7DD00023FB754F4BDB69F6
:102B000003F08053002B0DD14C4BDB694B4A43F053
:102B10008053D361494BDB6903F08053BB60BB68D2
:102B20000123FB75464B1B6803F48073002B18D1FF
:102B3000434B1B68424A43F480731360FEF7EAF884
:102B4000386108E0FEF7E6F802463B69D31A642BC9
:102B500001D903236DE03A4B1B6803F48073002B0B
:102B6000F0D0364B1B6A03F44073FB60FB68002B0C
:102B70002ED07B685B6803F44073FA689A4227D0D2
:102B80002E4B1B6A23F44073FB602E4B01221A600C
:102B90002C4B00221A60294AFB681362FB6803F081
:102BA0000103002B14D0FEF7B5F838610AE0FEF7F8
:102BB000B1F802463B69D31A41F28832934201D9F7
:102BC000032336E01D4B1B6A03F00203002BEED0FB
:102BD0001A4B1B6A23F440727B685B6817491343E6
:102BE0000B62FB7D012B05D1144BDB69134A23F0EB
:102BF0008053D3617B681B6803F00203002B08D06D
:102C00000E4B5B6823F440427B689B680B4913437F
:102C10004B607B681B6803F01003002B08D0074B48
:102C20005B6823F480027B685B69044913434B6053
:102C3000002318461837BD4680BD00BF0010024073
:102C4000007000404004424280B582B000AF78601E
:102C50007B68002B01D101231DE07B6893F83D3098
:102C6000DBB2002B06D17B68002283F83C20786819
:102C7000FDF772FD7B68022283F83D207B681A68AD
:102C80007B6804331946104600F01CFA7B68012269
:102C900083F83D20002318460837BD4680BD80B428
:102CA00085B000AF78607B681B68DA687B681B685A
:102CB00042F00102DA607B681B689B6803F007033F
:102CC000FB60FB68062B07D07B681B681A687B6873
:102CD0001B6842F001021A60002318461437BD46F3
:102CE00080BC704780B582B000AF78607B681B689D
:102CF0001B6903F00203022B22D17B681B68DB688F
:102D000003F00203022B1BD17B681B686FF00202E9
:102D10001A617B6801221A777B681B689B6903F044
:102D20000303002B03D0786800F0B1F905E0786860
:102D300000F0A4F9786800F0B3F97B6800221A77F4
:102D40007B681B681B6903F00403042B22D17B689A
:102D50001B68DB6803F00403042B1BD17B681B6832
:102D60006FF004021A617B6802221A777B681B6885
:102D70009B6903F44073002B03D0786800F087F957
:102D800005E0786800F07AF9786800F089F97B68E6
:102D900000221A777B681B681B6903F00803082B65
:102DA00022D17B681B68DB6803F00803082B1BD16A
:102DB0007B681B686FF008021A617B6804221A772F
:102DC0007B681B68DB6903F00303002B03D0786882
:102DD00000F05DF905E0786800F050F9786800F0DF
:102DE0005FF97B6800221A777B681B681B6903F018
:102DF0001003102B22D17B681B68DB6803F01003E3
:102E0000102B1BD17B681B686FF010021A617B6866
:102E100008221A777B681B68DB6903F44073002B78
:102E200003D0786800F033F905E0786800F026F9FF
:102E3000786800F035F97B6800221A777B681B6898
:102E40001B6903F00103012B0ED17B681B68DB6853
:102E500003F00103012B07D17B681B686FF00102AF
:102E60001A617868FDF728FC7B681B681B6903F012
:102E70008003802B0ED17B681B68DB6803F0800326
:102E8000802B07D17B681B686FF080021A6178681D
:102E900000F075FA7B681B681B6903F04003402B48
:102EA0000ED17B681B68DB6803F04003402B07D121
:102EB0007B681B686FF040021A61786800F0F9F8CF
:102EC0007B681B681B6903F02003202B0ED17B68F5
:102ED0001B68DB6803F02003202B07D17B681B688D
:102EE0006FF020021A61786800F040FA00BF0837DE
:102EF000BD4680BD80B584B000AF786039607B6826
:102F000093F83C30012B01D10223B3E07B6801220E
:102F100083F83C207B68022283F83D207B681B6895
:102F20009B68FB60FB6823F07703FB60FB6823F47E
:102F30007F43FB607B681B68FA689A603B681B688C
:102F4000B3F5005F3ED0B3F5005F00F28780B3F5C4
:102F5000805F00F08580B3F5805F7FD8702B1AD03A
:102F6000702B7BD8602B50D0602B77D8502B3CD067
:102F7000502B73D8402B58D0402B6FD8302B64D0B7
:102F8000302B6BD8202B60D0202B67D8002B5CD047
:102F9000102B5AD062E07B6818683B6899683B68E0
:102FA0005A683B68DB6800F07EF97B681B689B68A9
:102FB000FB60FB6843F07703FB607B681B68FA6883
:102FC0009A604EE07B6818683B6899683B685A686D
:102FD0003B68DB6800F067F97B681B689A687B6870
:102FE0001B6842F480429A603BE07B6818683B684B
:102FF00059683B68DB681A4600F0DEF87B681B689E
:103000005021184600F035F92BE07B6818683B68C2
:1030100059683B68DB681A4600F0FCF87B681B685F
:103020006021184600F025F91BE07B6818683B68B2
:1030300059683B68DB681A4600F0BEF87B681B687D
:103040004021184600F015F90BE07B681A683B68D0
:103050001B681946104600F00CF902E000BF00E0C2
:1030600000BF7B68012283F83D207B68002283F843
:103070003C20002318461037BD4680BD80B483B085
:1030800000AF786000BF0C37BD4680BC704780B48D
:1030900083B000AF786000BF0C37BD4680BC70477E
:1030A00080B483B000AF786000BF0C37BD4680BCF1
:1030B000704780B483B000AF786000BF0C37BD4666
:1030C00080BC704780B485B000AF786039607B68A1
:1030D0001B68FB607B68334A934213D07B68324A9B
:1030E00093420FD07B68B3F1804F0BD07B682F4A9F
:1030F000934207D07B682E4A934203D07B682D4AC7
:10310000934208D1FB6823F07003FB603B685B6867
:10311000FA681343FB607B68224A934213D07B68B2
:10312000214A93420FD07B68B3F1804F0BD07B686C
:103130001E4A934207D07B681D4A934203D07B68A6
:103140001C4A934208D1FB6823F44073FB603B6840
:10315000DB68FA681343FB60FB6823F080023B687E
:103160005B691343FB607B68FA681A603B689A6886
:103170007B68DA623B681A687B689A627B68094AF6
:10318000934203D07B68084A934203D13B681A6993
:103190007B681A637B6801225A6100BF1437BD4601
:1031A00080BC7047002C0140003401400004004006
:1031B00000080040000C004080B487B000AFF86009
:1031C000B9607A60FB681B6A7B61FB681B6A23F04D
:1031D0000102FB681A62FB689B693B613B6923F053
:1031E000F0033B617B681B013A6913433B617B69D8
:1031F00023F00A037B617A69BB6813437B61FB6838
:103200003A699A61FB687A691A6200BF1C37BD4649
:1032100080BC704780B487B000AFF860B9607A6056
:10322000FB681B6A23F01002FB681A62FB689B694B
:103230007B61FB681B6A3B617B6923F470437B61A4
:103240007B681B037A6913437B613B6923F0A0030E
:103250003B61BB681B013A6913433B61FB687A69B8
:103260009A61FB683A691A6200BF1C37BD4680BC90
:10327000704780B485B000AF786039607B689B6828
:10328000FB60FB6823F07003FB603A68FB68134344
:1032900043F00703FB607B68FA689A6000BF14374D
:1032A000BD4680BC704780B487B000AFF860B9609D
:1032B0007A603B60FB689B687B617B6923F47F439A
:1032C0007B613B681A027B681A43BB6813437A69C7
:1032D00013437B61FB687A699A6000BF1C37BD4667
:1032E00080BC704780B485B000AF786039607B687F
:1032F00093F83C30012B01D1022332E07B6801229C
:1033000083F83C207B68022283F83D207B681B68A1
:103310005B68FB607B681B689B68BB60FB6823F095
:103320007003FB603B681B68FA681343FB60BB6873
:1033300023F08003BB603B685B68BA681343BB60E3
:103340007B681B68FA685A607B681B68BA689A6079
:103350007B68012283F83D207B68002283F83C20B3
:10336000002318461437BD4680BC704780B483B034
:1033700000AF786000BF0C37BD4680BC704780B49A
:1033800083B000AF786000BF0C37BD4680BC70478B
:1033900080B582B000AF78607B68002B01D101233B
:1033A0003FE07B6893F83930DBB2002B06D17B68B5
:1033B000002283F838207868FDF7F2F97B68242230
:1033C00083F839207B681B68DA687B681B6822F405
:1033D0000052DA60786800F08BFB7B681B681A6922
:1033E0007B681B6822F490421A617B681B685A69EB
:1033F0007B681B6822F02A025A617B681B68DA68C6
:103400007B681B6842F40052DA607B680022DA6352
:103410007B68202283F839207B68202283F83A20B9
:10342000002318460837BD4680BD80B588B002AF7E
:10343000F860B9603B601346FB8000237B61FB684A
:1034400093F83930DBB2202B40F08380BB68002B2F
:1034500002D0FB88002B01D101237BE0FB6893F8AD
:103460003830012B01D1022374E0FB68012283F87C
:103470003820FB680022DA63FB68212283F83920B8
:10348000FDF748FC7861FB68FA889A84FB68FA8843
:10349000DA8442E0FB68DB8C9BB2013B9AB2FB68AA
:1034A000DA84FB689B68B3F5805F22D13B680093A8
:1034B0007B6900228021F86800F0B0F90346002BF8
:1034C00001D0032346E0BB683B613B691B881A4679
:1034D000FB681B68C2F308025A60FB681B69002B7B
:1034E00003D1BB680233BB6017E0BB680133BB602C
:1034F00013E03B6800937B6900228021F86800F0AC
:103500008DF90346002B01D0032323E0BB685A1C2E
:10351000BA601A78FB681B685A60FB68DB8C9BB248
:10352000002BB7D13B6800937B6900224021F868EB
:1035300000F074F90346002B01D003230AE0FB6876
:10354000202283F83920FB68002283F838200023EA
:1035500000E0022318461837BD4680BD80B485B010
:1035600000AFF860B9601346FB80FB6893F83A300F
:10357000DBB2202B40D1BB68002B02D0FB88002B94
:1035800001D1012339E0FB6893F83830012B01D1D8
:10359000022332E0FB68012283F83820FB68BA6816
:1035A0009A62FB68FA889A85FB68FA88DA85FB6874
:1035B0000022DA63FB68222283F83A20FB680022AB
:1035C00083F83820FB681B68DA68FB681B6842F4E4
:1035D0008072DA60FB681B685A69FB681B6842F0FE
:1035E00001025A61FB681B68DA68FB681B6842F0DD
:1035F0002002DA60002300E0022318461437BD469B
:1036000080BC704780B588B000AF78607B681B686D
:103610001B68FB617B681B68DB68BB617B681B68A0
:103620005B697B6100233B610023FB60FB6903F066
:103630000F033B613B69002B0DD1FB6903F02003B5
:10364000002B08D0BB6903F02003002B03D078685F
:1036500000F0CCF9CBE03B69002B00F0AB807B693C
:1036600003F00103002B05D1BB6903F49073002B19
:1036700000F0A080FB6903F00103002B0AD0BB69B6
:1036800003F48073002B05D07B68DB6B43F00102F1
:103690007B68DA63FB6903F00403002B0AD07B69C3
:1036A00003F00103002B05D07B68DB6B43F00202C3
:1036B0007B68DA63FB6903F00203002B0AD07B69A5
:1036C00003F00103002B05D07B68DB6B43F00402A1
:1036D0007B68DA63FB6903F00803002B0AD07B697F
:1036E00003F00103002B05D07B68DB6B43F008027D
:1036F0007B68DA637B68DB6B002B77D0FB6903F0B8
:103700002003002B07D0BB6903F02003002B02D05D
:10371000786800F06BF97B681B685B6903F0400315
:10372000002B14BF01230023DBB2FB607B68DB6B43
:1037300003F00803002B02D1FB68002B31D078681E
:1037400000F0B6F87B681B685B6903F04003002B50
:1037500023D07B681B685A697B681B6822F0400293
:103760005A617B685B6B002B13D07B685B6B214AD3
:103770005A637B685B6B1846FDF7B6FB0346002B6C
:1037800016D07B685B6B5B6B7A68526B1046984710
:103790000EE0786800F039F80AE0786800F035F853
:1037A00006E0786800F031F87B680022DA631DE0FB
:1037B00000BF1BE0FB6903F08003002B08D0BB694E
:1037C00003F08003002B03D0786800F0A2F80EE02D
:1037D000FB6903F04003002B09D0BB6903F04003F1
:1037E000002B04D0786800F0E9F800E000BF203733
:1037F000BD4680BDEB38000880B483B000AF786070
:1038000000BF0C37BD4680BC704780B483B000AFAA
:10381000786000BF0C37BD4680BC704780B584B06F
:1038200000AFF860B9603B601346FB712CE0BB69E8
:10383000B3F1FF3F28D0BB69002B07D0FDF76AFA30
:1038400002463B68D31ABA699A421DD2FB681B68CC
:10385000DA68FB681B6822F4D072DA60FB681B68C8
:103860005A69FB681B6822F001025A61FB6820223A
:1038700083F83920FB68202283F83A20FB68002275
:1038800083F8382003230FE0FB681B681A68BB68C5
:103890001340BA689A420CBF01230023DBB21A46D8
:1038A000FB799A42C3D0002318461037BD4680BD2D
:1038B00080B483B000AF78607B681B68DA687B688F
:1038C0001B6822F49072DA607B681B685A697B6817
:1038D0001B6822F001025A617B68202283F83A209B
:1038E00000BF0C37BD4680BC704780B584B000AFC8
:1038F00078607B685B6AFB60FB680022DA85FB68A6
:103900000022DA84F868FFF780FF00BF1037BD4659
:1039100080BD80B485B000AF78607B6893F83930A3
:10392000DBB2212B44D17B689B68B3F5805F1AD151
:103930007B681B6AFB60FB681B881A467B681B68F8
:10394000C2F308025A607B681B69002B05D17B68B3
:103950001B6A9A1C7B681A620EE07B681B6A5A1C01
:103960007B681A6208E07B681B6A591C7A681162DE
:103970001A787B681B685A607B68DB8C9BB2013BC2
:103980009BB27A681946D184002B0FD17B681B68E3
:10399000DA687B681B6822F08002DA607B681B684B
:1039A000DA687B681B6842F04002DA60002300E0BE
:1039B000022318461437BD4680BC704780B582B0DC
:1039C00000AF78607B681B68DA687B681B6822F050
:1039D0004002DA607B68202283F839207868FFF79C
:1039E0000BFF002318460837BD4680BD80B584B064
:1039F00000AF78607B6893F83A30DBB2222B71D14C
:103A00007B689B68B3F5805F23D17B689B6AFB6012
:103A10007B681B69002B0ED17B681B685B689BB2BF
:103A2000C3F308039AB2FB681A807B689B6A9A1CEE
:103A30007B689A6229E07B681B685B689BB2DBB29B
:103A40009AB2FB681A807B689B6A5A1C7B689A62F0
:103A50001BE07B681B69002B0AD17B681B685868D8
:103A60007B689B6A591C7A689162C2B21A700CE03A
:103A70007B681B685B68DAB27B689B6A581C796854
:103A8000886202F07F02D2B21A707B68DB8D9BB233
:103A9000013B9BB27A681946D185002B20D17B6807
:103AA0001B68DA687B681B6822F02002DA607B689A
:103AB0001B68DA687B681B6822F48072DA607B68B6
:103AC0001B685A697B681B6822F001025A617B6897
:103AD000202283F83A20786806F07EFA002302E07C
:103AE000002300E0022318461037BD4680BD0000C9
:103AF00080B584B000AF78607B681B681B6923F4D5
:103B000040517B68DA687B681B680A431A617B68EE
:103B10009A687B681B691A437B685B691343FB6087
:103B20007B681B68DB6823F4B05323F00C037A68CE
:103B30001268F9680B43D3607B681B685B6923F4E8
:103B400040717B689A697B681B680A435A617B688D
:103B50001B68524A93424ED1FEF75EFFB860BA68C6
:103B600013469B0013449A001A447B685B689B00D1
:103B7000B2FBF3F34A4AA2FB03235B091901BA68BB
:103B800013469B0013449A001A447B685B689B00B1
:103B9000B2FBF3F2424BA3FB02035B09642000FB80
:103BA00003F3D31A1B0132333D4AA2FB03235B0903
:103BB00003F0F0031944BA6813469B0013449A00BB
:103BC0001A447B685B689B00B2FBF3F2344BA3FBA7
:103BD00002035B09642000FB03F3D31A1B01323399
:103BE0002F4AA2FB03235B0903F00F027B681B68CB
:103BF0000A449A604DE0FEF7FBFEB860BA681346CF
:103C00009B0013449A001A447B685B689B00B2FBDC
:103C1000F3F3234AA2FB03235B091901BA68134695
:103C20009B0013449A001A447B685B689B00B2FBBC
:103C3000F3F21B4BA3FB02035B09642000FB03F3BD
:103C4000D31A1B013233164AA2FB03235B0903F08C
:103C5000F0031944BA6813469B0013449A001A44AF
:103C60007B685B689B00B2FBF3F20D4BA3FB020386
:103C70005B09642000FB03F3D31A1B013233084AAB
:103C8000A2FB03235B0903F00F027B681B680A4455
:103C90009A6000BF1037BD4680BD00BF00380140AC
:103CA0001F85EB5184B080B483B000AF786007F11A
:103CB000140080E80E00002318460C37BD4680BC77
:103CC00004B0704780B485B000AF78604FF43F43D4
:103CD000FB817B68B3F840309AB2FB8913439AB2F8
:103CE0007B68A3F84020002318461437BD4680BCEB
:103CF000704780B485B000AF78604FF43F43FB81DC
:103D00007B68B3F840309BB21AB2B7F90E30DB4390
:103D10001BB213401BB29AB27B68A3F84020002369
:103D200018461437BD4680BC704780B483B000AFDE
:103D300078600B46FB70002318460C37BD4680BCEC
:103D4000704784B080B582B000AF786007F114008E
:103D500080E80E007B680122A3F840207B680022E7
:103D6000A3F840207B680022A3F844207B6800224F
:103D7000A3F850207868FFF7A5FF002318460837FE
:103D8000BD46BDE8804004B07047000090B484B0E8
:103D900000AF786039600023FB737A683B681B785A
:103DA0009B0013441B889BB223F4EC4323F0700365
:103DB000BB813B68DB78032B19D801A252F823F0B2
:103DC000D13D0008E53D0008F53D0008DB3D000859
:103DD000BB8943F40073BB810DE0BB8943F4C0632E
:103DE000BB8108E0BB8943F48063BB8103E001230E
:103DF000FB7300E000BF7A683B681B789B001A44A5
:103E0000BB8943F07F4343F47F0343F4004343F013
:103E100080039BB213807A683B681B789B00134435
:103E20001B889BB223F4E04323F070039BB23A68F3
:103E3000127813439CB27A683B681B789B001A4443
:103E4000894B23439BB213803B681B7B002B40F0C4
:103E500011813B685B78002B67D07C687B68B3F886
:103E600050309BB21C443B681B781B01234403F574
:103E700080631C463B68DB885B089BB25B009BB29F
:103E800023807A683B681B789B0013441B889CB294
:103E9000234603F04003002B14D07A683B681B785C
:103EA0009B0013441B889BB223F4E04323F0700370
:103EB0009CB27A683B681B789B001A446B4B234387
:103EC0009BB213803B68DB78012B18D07A683B6883
:103ED0001B789B0013441B889BB223F4E04323F020
:103EE00040039CB284F020039CB27A683B681B7844
:103EF0009B001A445C4B23439BB213802AE27A68EE
:103F00003B681B789B0013441B889BB223F4E0435F
:103F100023F040039CB27A683B681B789B001A44EC
:103F2000514B23439BB2138014E27C687B68B3F847
:103F300050309BB21C443B681B781B01234403F5A3
:103F400081631C463B68DB885B089BB25B009BB2CD
:103F500023807C687B68B3F850309BB21C443B687C
:103F60001B781B01234403F20C431C463B681B696E
:103F7000002B0ED123889BB223F4F8439BB22380FD
:103F800023889BB26FEA43436FEA53439BB223807B
:103F90002DE03B681B693E2B12D83B681B695B0810
:103FA000BB603B681B6903F00103002B02D0BB68B8
:103FB0000133BB60BB689BB29B029BB2238016E0BF
:103FC0003B681B695B09BB603B681B6903F01F030F
:103FD000002B02D1BB68013BBB60BB689BB29B025C
:103FE0009BB26FEA43436FEA53439BB223807A68E4
:103FF0003B681B789B0013441B889CB2234603F448
:104000008043002B14D07A683B681B789B001344D4
:104010001B889BB223F4E04323F070039CB27A68C0
:104020003B681B789B001A44114B23439BB21380BF
:104030007A683B681B789B0013441B889BB223F46F
:10404000804323F070039CB284F480539CB284F4C8
:1040500000539CB27A683B681B789B001A44024B61
:1040600023439BB2138075E18080FFFFC080FFFF78
:1040700080C0FFFF7A683B681B789B0013441B8855
:104080009BB223F4E04323F070039CB27A683B6850
:104090001B789B001A44964B23439BB213807C6889
:1040A0007B68B3F850309BB21C443B681B781B0103
:1040B000234403F580631C463B681B895B089BB265
:1040C0005B009BB223807C687B68B3F850309BB266
:1040D0001C443B681B781B01234403F581631C4689
:1040E0003B685B895B089BB25B009BB223803B68AB
:1040F0005B78002B40F088807A683B681B789B00D7
:1041000013441B889CB2234603F48043002B14D035
:104110007A683B681B789B0013441B889BB223F48E
:10412000E04323F070039CB27A683B681B789B00E5
:104130001A44704B23439BB213807A683B681B7808
:104140009B0013441B889CB2234603F04003002BC2
:1041500014D07A683B681B789B0013441B889BB281
:1041600023F4E04323F070039CB27A683B681B7829
:104170009B001A44604B23439BB213807A683B68D0
:104180001B789B0013441B889BB223F4E04323F06D
:1041900070039CB27A683B681B789B001A44564BAC
:1041A00023439BB213807A683B681B789B001344BF
:1041B0001B889BB223F4804323F070039CB284F4E9
:1041C00080539CB284F400539CB27A683B681B789D
:1041D0009B001A44494B23439BB213807A683B6887
:1041E0001B789B0013441B889BB223F4E04323F00D
:1041F00040039CB27A683B681B789B001A443F4B93
:1042000023439BB21380A5E07A683B681B789B0030
:1042100013441B889CB2234603F48043002B14D024
:104220007A683B681B789B0013441B889BB223F47D
:10423000E04323F070039CB27A683B681B789B00D4
:104240001A442C4B23439BB213807A683B681B783B
:104250009B0013441B889CB2234603F04003002BB1
:1042600014D07A683B681B789B0013441B889BB270
:1042700023F4E04323F070039CB27A683B681B7818
:104280009B001A441C4B23439BB213807A683B6803
:104290001B789B0013441B889BB223F4E04323F05C
:1042A00070039CB27A683B681B789B001A44114BE0
:1042B00023439BB213803B68DB78012B20D07A68C4
:1042C0003B681B789B0013441B889BB223F4E0439C
:1042D00023F040039CB284F020039CB27A683B68D0
:1042E0001B789B001A44054B23439BB213801CE0B0
:1042F0008081FFFF80C0FFFFC080FFFF8080FFFF45
:104300007A683B681B789B0013441B889BB223F49C
:10431000E04323F040039CB27A683B681B789B0023
:104320001A440F4B23439BB213807A683B681B7877
:104330009B0013441B889BB223F4804323F070033B
:104340009CB27A683B681B789B001A44044B234359
:104350009BB21380FB7B18461037BD4690BC70475C
:104360008080FFFF90B482B000AF786039603B6816
:104370001B7B002B71D13B685B78002B36D07A68B1
:104380003B681B789B0013441B889CB2234603F0B8
:104390004003002B14D07A683B681B789B001344C1
:1043A0001B889BB223F4E04323F070039CB27A682D
:1043B0003B681B789B001A446B4B23439BB21380D2
:1043C0007A683B681B789B0013441B889BB223F4DC
:1043D000E04323F040039CB27A683B681B789B0063
:1043E0001A44624B23439BB2138044E17A683B68D2
:1043F0001B789B0013441B889CB2234603F4804324
:10440000002B14D07A683B681B789B0013441B88F0
:104410009BB223F4E04323F070039CB27A683B68BC
:104420001B789B001A44524B23439BB213807A683B
:104430003B681B789B0013441B889BB223F480438A
:1044400023F070039CB27A683B681B789B001A4487
:10445000464B23439BB213800DE13B685B78002BF6
:1044600040F088807A683B681B789B0013441B8867
:104470009CB2234603F48043002B14D07A683B6837
:104480001B789B0013441B889BB223F4E04323F06A
:1044900070039CB27A683B681B789B001A44344BCB
:1044A00023439BB213807A683B681B789B001344BC
:1044B0001B889CB2234603F04003002B14D07A687B
:1044C0003B681B789B0013441B889BB223F4E0439A
:1044D00023F070039CB27A683B681B789B001A44F7
:1044E000214B23439BB213807A683B681B789B0067
:1044F00013441B889BB223F4E04323F070039CB267
:104500007A683B681B789B001A44174B23439BB285
:1045100013807A683B681B789B0013441B889BB20E
:1045200023F4804323F070039CB27A683B681B78C5
:104530009B001A440D4B23439BB213807A683B685F
:104540001B789B0013441B889BB223F4E04323F0A9
:1045500040039CB27A683B681B789B001A44034B6B
:1045600023439BB2138086E0C080FFFF8080FFFF63
:1045700080C0FFFF7A683B681B789B0013441B8850
:104580009CB2234603F48043002B14D07A683B6826
:104590001B789B0013441B889BB223F4E04323F059
:1045A00070039CB27A683B681B789B001A44354BB9
:1045B00023439BB213807A683B681B789B001344AB
:1045C0001B889CB2234603F04003002B14D07A686A
:1045D0003B681B789B0013441B889BB223F4E04389
:1045E00023F070039CB27A683B681B789B001A44E6
:1045F000254B23439BB213807A683B681B789B0052
:1046000013441B889BB223F4E04323F070039CB255
:104610007A683B681B789B001A441A4B23439BB271
:1046200013807A683B681B789B0013441B889BB2FD
:1046300023F4E04323F040039CB27A683B681B7884
:104640009B001A44114B23439BB213807A683B684A
:104650001B789B0013441B889BB223F4804323F0F8
:1046600070039CB27A683B681B789B001A44074B26
:1046700023439BB21380002318460837BD4690BCE5
:10468000704700BF80C0FFFFC080FFFF8080FFFF3A
:1046900090B58DB000AF786039603B685B78012BD6
:1046A00040F060813B689A693B681B699A4209D96E
:1046B0003B681B69BB623B689A69BB6AD21A3B685C
:1046C0009A6105E03B689B69BB623B6800229A6186
:1046D0003B681B7B002B19D13B6859693B68DA8822
:1046E000BB6A9BB2786800F0A2FB7C687B68B3F879
:1046F00050309BB21C443B681B781B01234403F2DF
:1047000004431C46BB6A9BB223800FE17A683B6876
:104710001B789B0013441B889BB203F04003002BC3
:1047200065D07C683B685B78002B48D17C687B68EF
:10473000B3F850309BB21C443B681B781B012344E8
:1047400003F20C431C46BB6A002B0ED123889BB29C
:1047500023F4F8439BB2238023889BB26FEA434340
:104760006FEA53439BB223803DE0BB6A3E2B10D8D7
:10477000BB6A5B087B62BB6A03F00103002B02D0BB
:104780007B6A01337B627B6A9BB29B029BB2238074
:1047900029E0BB6A5B097B62BB6A03F01F03002B45
:1047A00002D17B6A013B7B627B6A9BB29B029BB21C
:1047B0006FEA43436FEA53439BB2238013E03B68A5
:1047C0005B78012B0FD17B68B3F850309BB21C444F
:1047D0003B681B781B01234403F20C43FB60BB6A5C
:1047E0009AB2FB681A803B685B89FB8563E03B6893
:1047F0005B78002B48D17C687B68B3F850309BB263
:104800001C443B681B781B01234403F204431C46F1
:10481000BB6A002B0ED123889BB223F4F8439BB2D2
:10482000238023889BB26FEA43436FEA53439BB2D2
:1048300023803DE0BB6A3E2B10D8BB6A5B083B621D
:10484000BB6A03F00103002B02D03B6A01333B62D9
:104850003B6A9BB29B029BB2238029E0BB6A5B0947
:104860003B62BB6A03F01F03002B02D13B6A013B92
:104870003B623B6A9BB29B029BB26FEA43436FEA87
:1048800053439BB2238013E03B685B78012B0FD12D
:104890007C687B68B3F850309BB21C443B681B7843
:1048A0001B01234403F204431C46BB6A9BB22380D2
:1048B0003B681B89FB853B685969BB6A9BB2FA8DD3
:1048C000786800F0B4FA3B685B78002B15D17A6801
:1048D0003B681B789B0013441B889BB223F4E04386
:1048E00023F070039CB27A683B681B789B001A44E3
:1048F000904B23439BB2138018E03B685B78012BFD
:1049000014D17A683B681B789B0013441B889BB2C8
:1049100023F4E04323F070039CB27A683B681B7871
:104920009B001A44844B23439BB213807A683B68F4
:104930001B789B0013441B889BB223F4E04323F0B5
:1049400040039CB284F010039CB284F020039CB21C
:104950007A683B681B789B001A44784B23439BB2D0
:10496000138046E13B689A693B681B699A4209D902
:104970003B681B69BB623B689A69BB6AD21A3B6899
:104980009A6105E03B689B69BB623B6800229A61C3
:104990003B681B7B002B48D17C687B68B3F85030A8
:1049A0009BB21C443B681B781B01234403F20C435D
:1049B0001C46BB6A002B0ED123889BB223F4F8431C
:1049C0009BB2238023889BB26FEA43436FEA534331
:1049D0009BB22380F2E0BB6A3E2B10D8BB6A5B0817
:1049E000FB61BB6A03F00103002B02D0FB690133BA
:1049F000FB61FB699BB29B029BB22380DEE0BB6A3A
:104A00005B09FB61BB6A03F01F03002B02D1FB694A
:104A1000013BFB61FB699BB29B029BB26FEA434384
:104A20006FEA53439BB22380C8E03B685B78002B5E
:104A300048D17C687B68B3F850309BB21C443B681B
:104A40001B781B01234403F204431C46BB6A002B62
:104A50000ED123889BB223F4F8439BB22380238892
:104A60009BB26FEA43436FEA53439BB223803DE01E
:104A7000BB6A3E2B10D8BB6A5B08BB61BB6A03F004
:104A80000103002B02D0BB690133BB61BB699BB240
:104A90009B029BB2238029E0BB6A5B09BB61BB6AB6
:104AA00003F01F03002B02D1BB69013BBB61BB6953
:104AB0009BB29B029BB26FEA43436FEA53439BB2A4
:104AC000238013E03B685B78012B0FD17C687B6807
:104AD000B3F850309BB21C443B681B781B01234445
:104AE00003F204431C46BB6A9BB223807C683B688C
:104AF0005B78002B4ED17C687B68B3F850309BB25A
:104B00001C443B681B781B01234403F20C431C46E6
:104B1000BB6A002B14D123889BB223F4F8439BB2C9
:104B2000238023889BB26FEA43436FEA53439BB2CF
:104B3000238043E0C080FFFF80C0FFFF8080FFFF35
:104B4000BB6A3E2B10D8BB6A5B087B61BB6A03F073
:104B50000103002B02D07B6901337B617B699BB22F
:104B60009B029BB2238029E0BB6A5B097B61BB6A25
:104B700003F01F03002B02D17B69013B7B617B6942
:104B80009BB29B029BB26FEA43436FEA53439BB2D3
:104B9000238013E03B685B78012B0FD17B68B3F86F
:104BA00050309BB21C443B681B781B01234403F22A
:104BB0000C433B61BB6A9AB23B691A807A683B68D6
:104BC0001B789B0013441B889BB223F4804323F083
:104BD00070039CB284F480539CB284F400539CB262
:104BE0007A683B681B789B001A44044B23439BB2B2
:104BF0001380002318463437BD4690BD8080FFFFE8
:104C000090B482B000AF786039603B685B78002B6D
:104C100018D07A683B681B789B0013441B889BB2B2
:104C200023F4E04323F040039CB284F010039CB2D1
:104C30007A683B681B789B001A44114B23439BB254
:104C4000138017E07A683B681B789B0013441B882D
:104C50009BB223F4804323F070039CB284F480530E
:104C60009CB27A683B681B789B001A44044B234330
:104C70009BB21380002318460837BD4690BC70478E
:104C80008080FFFF90B482B000AF786039603B68ED
:104C90001B7B002B7DD13B685B78002B3DD07A6875
:104CA0003B681B789B0013441B889CB2234603F08F
:104CB0004003002B14D07A683B681B789B00134498
:104CC0001B889BB223F4E04323F070039CB27A6804
:104CD0003B681B789B001A44314B23439BB21380E3
:104CE0003B68DB78012B54D07A683B681B789B00CB
:104CF00013441B889BB223F4E04323F040039CB28F
:104D000084F020039CB27A683B681B789B001A44AD
:104D1000244B23439BB213803BE07A683B681B78AB
:104D20009B0013441B889CB2234603F48043002B52
:104D300014D07A683B681B789B0013441B889BB295
:104D400023F4E04323F070039CB27A683B681B783D
:104D50009B001A44144B23439BB213807A683B6830
:104D60001B789B0013441B889BB223F4804323F0E1
:104D700070039CB284F480539CB284F400539CB2C0
:104D80007A683B681B789B001A44064B23439BB20E
:104D90001380002318460837BD4690BC704700BFFB
:104DA000C080FFFF8080FFFF80C0FFFF80B483B022
:104DB00000AF78600B46FB70FB78002B03D17B685B
:104DC0008022A3F84C20002318460C37BD4680BC37
:104DD000704780B483B000AF7860002318460C376A
:104DE000BD4680BC704780B483B000AF78600023BC
:104DF00018460C37BD4680BC704780B485B000AF04
:104E000078607B68B3F844309BB2FB60FB6818465F
:104E10001437BD4680BC704780B483B000AF786063
:104E20003960002318460C37BD4680BC704780B4FB
:104E30008DB000AFF860B96011461A460B46FB8092
:104E40001346BB80BB8801335B083B62FB68FB6198
:104E5000BB687B62FB885A00FB69134403F58063DF
:104E6000BB623B6AFB621DE07B6A1B78BB617B6AAD
:104E700001337B627B6A1B781B029BB21A46BB69BB
:104E800013437B617B699AB2BB6A1A80BB6A0233A7
:104E9000BB62BB6A0233BB627B6A01337B62FB6A23
:104EA000013BFB62FB6A002BDED100BF00BF343741
:104EB000BD4680BC704780B48BB000AFF860B9606D
:104EC00011461A460B46FB801346BB80BB885B0825
:104ED0009BB2BB61FB687B61BB68FB61FB885A00CE
:104EE0007B69134403F580633B62BB697B621BE013
:104EF0003B6A1B889BB23B613B6A02333B623B6966
:104F0000DAB2FB691A70FB690133FB613B691B0A6A
:104F1000DAB2FB691A70FB690133FB613B6A023349
:104F20003B627B6A013B7B627B6A002BE0D1BB88E2
:104F300003F001039BB2002B07D03B6A1B889BB296
:104F40003B613B69DAB2FB691A7000BF2C37BD4682
:104F500080BC704780B584B000AF78600B46FB70B2
:104F60000023FB73022303228121786804F07DFD76
:104F70007B680122DA62022303220121786804F0AF
:104F800074FD7B680122C3F86C21542004F07AFE82
:104F900002467B68C3F8B8227B68D3F8B832002B8E
:104FA00002D10123FB7312E07B68D3F8B832BB60F7
:104FB000BB68002283F850207B68D3F8BC325B6862
:104FC0009847BA6840230121786804F038FEFB7BDB
:104FD00018461037BD4680BD80B582B000AF7860FE
:104FE0000B46FB708121786804F065FD7B68002228
:104FF000DA620121786804F05EFD7B680022C3F864
:105000006C217B68D3F8B832002B0ED07B68D3F8C4
:10501000BC329B6898477B68D3F8B832184604F0D6
:105020003DFE7B680022C3F8B822002318460837EB
:10503000BD4680BD80B588B000AF786039607B68C0
:10504000D3F8B8323B610023FB830023BB6100230C
:10505000FB810023FB753B681B7803F06003002B8A
:1050600051D0202B40F0D8803B685B78023B092B65
:1050700041D801A252F823F0D1500008AF500008E7
:10508000F7500008F7500008F7500008F7500008E4
:10509000F7500008E1500008BF500008A150000878
:1050A0003B685B88DBB21A463B691A642AE03B69BD
:1050B000403301221946786801F09CF922E03B68F0
:1050C0005B881B0A9BB2DBB21A463B695A6419E043
:1050D0003B69443301221946786801F08BF911E0ED
:1050E0003B690122DA6439693B68DB881A467868D3
:1050F00001F0AEF906E03968786801F011F9022391
:10510000FB7500BF8FE03B685B780B2B7CD801A25E
:1051100052F823F0455100080952000809520008CE
:105120000952000809520008095200086D51000890
:10513000095200080952000809520008BB51000832
:10514000E35100087B6893F89C32032B07D107F1E9
:105150000E0302221946786801F04CF95BE03968C9
:10516000786801F0DDF80223FB7554E03B685B884A
:105170001B0A9BB2222B0BD13B68DB88202B28BF5C
:105180002023FB837B68D3F8BC321B68BB610DE036
:105190003B685B881B0A9BB2212B07D1244BBB6168
:1051A0003B68DB88092B28BF0923FB83FB8B1A464E
:1051B000B969786801F01EF92DE07B6893F89C329C
:1051C000032B07D13B69483301221946786801F067
:1051D00011F920E03968786801F0A2F80223FB7524
:1051E00019E07B6893F89C32032B06D13B685B88FF
:1051F000DBB21A463B699A640DE03968786801F0C1
:105200008FF80223FB7506E03968786801F088F8AA
:105210000223FB7500BF06E03968786801F080F86A
:105220000223FB7500BFFB7D18462037BD4680BDBD
:10523000C800002080B586B000AFF860B9601346A2
:10524000FB80FB68D3F8B8327B61FB6893F89C3233
:10525000032B11D17B6993F85030002B0AD17B6965
:10526000012283F85020FB88BA688121F86804F095
:10527000C3FC01E0012300E0002318461837BD46B7
:1052800080BD000080B483B000AF78607B682922C5
:105290001A80034B18460C37BD4680BC704700BFD0
:1052A0004400002080B483B000AF78607B6829227E
:1052B0001A80034B18460C37BD4680BC704700BFB0
:1052C0007000002080B483B000AF78607B68292232
:1052D0001A80034B18460C37BD4680BC704700BF90
:1052E0009C00002080B483B000AF78600B46FB7058
:1052F0007B68D3F8B832002283F850200023184688
:105300000C37BD4680BC704780B584B000AF786074
:105310000B46FB707B68D3F8B832FB607B68D3F830
:10532000BC32DB68FA681078FA6852781146984700
:10533000FA6840230121786804F081FC00231846B4
:105340001037BD4680BD80B584B000AF78607B6803
:10535000D3F8B832FB60FB68DB6C012B0CD17B68A7
:10536000D3F8BC32DB68FA681078FA6852781146D4
:105370009847FB680022DA64002318461037BD46C0
:1053800080BD000080B483B000AF78607B680A22E3
:105390001A80034B18460C37BD4680BC704700BFCF
:1053A000D400002080B485B000AF7860396002235B
:1053B000FB733B68002B05D07B683A68C3F8BC22BE
:1053C0000023FB73FB7B18461437BD4680BC704737
:1053D00080B584B000AFF860B9601346FB71FB681C
:1053E000002B01D102231AE0FB68D3F8B432002B62
:1053F00003D0FB680022C3F8B422BB68002B03D0A3
:10540000FB68BA68C3F8B022FB68012283F89C22CB
:10541000FB68FA791A70F86804F0BCFA00231846A1
:105420001037BD4680BD80B485B000AF786039606C
:105430000023FB733B68002B06D07B683A68C3F8F7
:10544000B4220023FB7301E00223FB73FB7B1846AD
:105450001437BD4680BC704780B582B000AF78601D
:10546000786804F0E7FA002318460837BD4680BD87
:1054700080B483B000AF7860002318460C37BD4677
:1054800080BC704780B584B000AF78600B46FB707D
:105490000223FB737B68D3F8B432002B0CD07B68FB
:1054A000D3F8B4321B68FA781146786898470346F7
:1054B000002B01D10023FB73FB7B18461037BD4640
:1054C00080BD80B582B000AF78600B46FB707B6812
:1054D000D3F8B4325B68FA781146786898470023AD
:1054E00018460837BD4680BD80B582B000AF7860F1
:1054F00039607B6803F52A733968184600F0D7FED7
:105500007B680122C3F894227B68B3F8AE321A4656
:105510007B68C3F898227B6893F8A83203F01F03D6
:10552000022B16D0022B1CD8002B02D0012B08D046
:1055300017E07B6803F52A731946786800F0CAF90A
:105540001AE07B6803F52A731946786800F02CFA94
:1055500012E07B6803F52A731946786800F06CFA4C
:105560000AE07B6893F8A83223F07F03DBB2194688
:10557000786804F0BFFA00BF002318460837BD461C
:1055800080BD80B586B000AFF8600B467A60FB72D4
:10559000FB7A002B4BD1FB6803F5AA737B61FB6898
:1055A000D3F89432032B34D17B69DA687B691B69A9
:1055B0009A4219D97B69DA687B691B69D21A7B69BF
:1055C000DA607B69DA687B691B699A4203D27B697E
:1055D000DB689BB202E07B691B699BB21A46796863
:1055E000F86800F053FF38E0FB68D3F8B4321B6969
:1055F000002B0AD0FB6893F89C32032B05D1FB6883
:10560000D3F8B4321B69F8689847F86800F050FF87
:1056100023E0FB68D3F89432052B1ED1FB680022EF
:10562000C3F894220021F86804F064FA15E0FB68DE
:10563000D3F8B4329B69002B0DD0FB6893F89C32F1
:10564000032B08D1FB68D3F8B4329B69FA7A114670
:10565000F868984701E0022300E000231846183755
:10566000BD4680BD80B586B000AFF8600B467A605D
:10567000FB72FB7A002B7FD1FB6814337B61FB68E4
:10568000D3F89432022B5CD17B69DA687B691B69A1
:105690009A4215D97B69DA687B691B69D21A7B69E2
:1056A000DA607B69DB689BB21A467968F86800F0BB
:1056B000BDFE002300220021F86804F0C0FA4EE08D
:1056C0007B699B687A691269B3FBF2F101FB02F214
:1056D0009B1A002B1CD17B699A687B691B699A42D3
:1056E00016D37B699A68FB68D3F898329A420FD236
:1056F00000220021F86800F099FEFB680022C3F840
:105700009822002300220021F86804F098FA26E08D
:10571000FB68D3F8B432DB68002B0AD0FB6893F83F
:105720009C32032B05D1FB68D3F8B432DB68F868F0
:1057300098478021F86804F0DDF9F86800F0CBFEA6
:105740000DE0FB68D3F89432042B04D0FB68D3F847
:105750009432002B03D18021F86804F0CBF9FB6868
:1057600093F8A032012B1DD1F868FFF781FEFB688A
:10577000002283F8A02215E0FB68D3F8B4325B69FD
:10578000002B0DD0FB6893F89C32032B08D1FB68EB
:10579000D3F8B4325B69FA7A1146F868984701E0A9
:1057A000022300E0002318461837BD4680BD80B5AF
:1057B00082B000AF7860402300220021786804F0B6
:1057C00054F97B680122C3F858217B684022C3F852
:1057D0006421402300228021786804F046F97B6828
:1057E00001229A617B6840225A627B68012283F819
:1057F0009C227B680022C3F894227B6800225A60B6
:105800007B680022C3F8A4227B68D3F8B832002B4F
:1058100009D07B68D3F8B4325B687A685268D2B238
:10582000114678689847002318460837BD4680BD62
:1058300080B483B000AF78600B46FB707B68FA7869
:105840001A74002318460C37BD4680BC704780B4DC
:1058500083B000AF78607B6893F89C227B6883F804
:105860009D227B68042283F89C22002318460C3773
:10587000BD4680BC704780B483B000AF78607B6861
:1058800093F89C32042B05D17B6893F89D227B68AA
:1058900083F89C22002318460C37BD4680BC704715
:1058A00080B582B000AF78607B6893F89C32032BA0
:1058B0000BD17B68D3F8B432DB69002B05D07B6851
:1058C000D3F8B432DB697868984700231846083764
:1058D000BD4680BD80B584B000AF786039600023DC
:1058E000FB733B681B7803F06003402B05D0402B13
:1058F0004FD8002B09D0202B4BD17B68D3F8B43282
:105900009B6839687868984748E03B685B78092B62
:1059100039D801A252F823F0695900087D590008CE
:105920008759000873590008875900084B59000827
:1059300041590008875900085F5900085559000867
:105940003968786800F0DCF922E03968786800F09E
:105950003FFB1DE03968786800F07EFB18E039688D
:10596000786800F007FC13E03968786800F037FCCD
:105970000EE03968786800F065FC09E039687868FD
:1059800000F074FC04E03968786800F0C9FC00BFDE
:1059900004E03968786800F0C3FC00BFFB7B184660
:1059A0001037BD4680BD00BF80B584B000AF7860C1
:1059B00039600023FB733B681B7803F06003402BC6
:1059C00005D0402B2ED8002B01D0202B2AD17B686C
:1059D00093F89C32013B022B1DD83B689B88DBB2BD
:1059E000012B13D87B68D3F8B4329B683968786888
:1059F00098470346FB733B68DB88002B10D1FB7B89
:105A0000002B0DD1786800F053FD09E03968786803
:105A100000F086FC04E03968786800F081FC00E062
:105A200000BF04E03968786800F07AFC00BF00230A
:105A300018461037BD4680BD80B584B000AF786091
:105A400039600023FB733B689B88BB733B681B7802
:105A500003F06003402B07D0402B00F24681002B5F
:105A60000AD0202B40F041817B68D3F8B4329B6888
:105A70003968786898473DE13B681B7803F060031C
:105A8000202B0AD17B68D3F8B4329B6839687868D8
:105A900098470346FB73FB7B2DE13B685B78032B48
:105AA00007D0032B00F31B81002B72D0012B3AD0BF
:105AB00015E17B6893F89C32022B02D0032B15D0A2
:105AC0002BE0BB7B002B0CD0BB7B802B09D0BB7B9E
:105AD0001946786804F00EF88021786804F00AF816
